S0140000566F6C746D657465722056312E73726563A7
S1130000A5C00000BFC00000BDC00000BBC0000010
S1130010B9C00000B7C00000B5C00000B3C0000004
S1130020B1C00000AFC0000028C50000F1C5000049
S1130030A9C00000A7C00000A5C00000A3C0000024
S1130040A1C000009FC000009DC000009BC0000034
S113005099C0000097C0000095C0000093C0000044
S113006091C000008FC000008DC000008BC0000054
S113007089C0000087C0000085C0000083C0000064
S113008081C000007FC000007DC000007BC0000074
S113009079C0000077C0000075C0000073C0000084
S11300A071C000006FC000006DC000006A068C06BD
S11300B070078C067007CE06F006700742075407D7
S11300C01C034C005500460041002000430044003E
S11300D043002000440065006D006F000000180319
S11300E04400650061006E002000430061006D0063
S11300F065007200610000000403090409023E0067
S1130100020100C0320904000001020201000524BA
S113011000100104240206052406000107058203D9
S11301200800FF09040100020A0000000705040298
S113013010000507058302100005120110010200DA
S11301400008EB03442001000102DC0111241FBE5E
S1130150CFEFDAE0DEBFCDBF11E0A0E0B1E0ECE527
S1130160F9E102C005900D92AE35B107D9F721E04F
S1130170AEE5B1E001C01D92AA37B207E1F74BD753
S11301800C94AC0C3DCF292F33272230310559F084
S11301902330310569F021303105F9F482E190E032
S11301A02AE331E01EC08EE390E02CEF30E019C06A
S11301B099278130910541F08230910541F0892BD6
S11301C061F4E8EFF0E005C0EEEDF0E002C0E0EC31
S11301D0F0E0849190E09F0104C080E090E020E092
S11301E030E0FA0131832083089576980895769A51
S11301F00895CF93DF93C82FD62F662311F05E9A0C
S113020001C05E98C7FF02C02C9A01C02C98C6FF9B
S113021002C02D9A01C02D98C5FF02C02E9A01C0BC
S11302202E98C4FF02C02F9A01C02F9800C0DFDFB0
S113023082E08A95F1F700C0D8DFC3FF02C02C9A90
S113024001C02C98C2FF02C02D9A01C02D98C1FF95
S113025002C02E9A01C02E98C0FF02C02F9A01C07E
S11302602F9800C0C4DF92E09A95F1F700C0BDDF7B
S11302702C9A2D9A2E9A2F9AD11108C0C43030F49A
S11302808FE999E10197F1F700C003C095ED9A95C4
S1130290F1F70000DF91CF91089560E0AACF805874
S11302A0FCCF81E0FACF61E0A4CFCF93DF93EC01E0
S11302B08991882311F0F7DFFBCFDF91CF91089567
S11302C06E9A569A249A259A269A279A8EDF5E98D1
S11302D02C9A2D9A2E9A2F9A8FE59AEE0197F1F780
S11302E000C000002C982D9800C081DF92E09A9500
S11302F0F1F700C07ADF8FE090E40197F1F700C0D6
S1130300000075DF92E09A95F1F700C06EDF8FE888
S113031091E00197F1F700C0000069DF92E09A953F
S1130320F1F700C062DF85ED8A95F1F700002F98A0
S113033000C05DDF92E09A95F1F700C056DF85EDCD
S11303408A95F1F700002F9800C051DF92E09A954A
S1130350F1F700C04ADF82E08A95F1F700C02C9AD9
S113036000C045DF92E09A95F1F700C03EDF85EDCD
S11303708A95F1F7000088E090DF93DF86E08DDF57
S11303808CE08BCFCF93DF93EC01FC0170968BE074
S1130390DF011D928A95E9F782E08C83898783E0E7
S11303A08E8761E0CE0101967DD2882361F061E001
S11303B0CE01069677D2882331F061E0CE010B9608
S11303C0DF91CF916FC280E0DF91CF910895CF93F9
S11303D0C62F209170012430F1F4FC014489558921
S11303E066897789452B462B472BA9F081818F702D
S11303F08093E9008091E80085FF04C0C093F10078
S113040080E00AC08091E8008E778093E800A8D24B
S11304108823A1F301C082E0CF910895FB01682FE6
S113042084859585D4DF21E030E0811102C020E08D
S113043030E088279927821B930B0895209170013F
S1130440243041F5FC014489558966897789452B17
S1130450462B472BF9F081818F708093E90020911E
S1130460F3008091F20090E0922B892B89F0909117
S1130470E8008091E8008E778093E80095FD08C03D
S11304806FD2811108C08091E8008E778093E800D4
S113049080E0089582E0089520917001243089F469
S11304A0FC014489558966897789452B462B472B5E
S11304B041F021812F702093E9002091E80020FD74
S11304C0BDCF089520917001243019F08FEF9FEF74
S11304D00895FC014489558966897789452B462B03
S11304E0472BA1F386818F708093E9008091E80007
S11304F082FFECCF2091F3008091F20090E0922BE8
S1130500892B21F02091F10030E002C02FEF3FEF62
S11305104091F3008091F20090E0942B892B29F410
S11305208091E8008B778093E800C9010895FC016D
S113053084859585C7DF97FF02C08EEF9FEF0895EE
S1130540FB012EE0DB011D922A95E9F723E02383CA
S11305502EE032E03187208727E932E03387228793
S11305609587848708950895CF93DF93EC01809154
S1130570E80083FFA6C0888190E020917501309146
S113058076012817390709F09CC0809172018132E5
S113059061F020F4803209F43EC093C0823209F441
S11305A06CC0833209F47DC08CC080917101813AA2
S11305B009F087C08091E800877F8093E8008091EC
S11305C0E80080FFFCCF4C895D896E897F89409368
S11305D0F100BB27A72F962F852F8093F100CB0125
S11305E0AA27BB278093F100472F55276627772733
S11305F04093F100888D8093F100898D8093F10000
S11306008A8D8093F1008091E8008E778093E800D2
S1130610DF91CF9184C180917101813209F051C081
S11306208091E800877F8093E8008091E80082FD54
S113063005C0809170018111F8CF43C03091F10061
S11306402091F1009091F1008091F1003C8B2D8B71
S11306509E8B8F8B8091F100888F8091F100898F20
S11306608091F1008A8F8091E8008B778093E80075
S113067056D1CE01DF91CF9176CF80917101813235
S113068001F58091E800877F8093E80048D180914C
S1130690730190917401998B888BCE01DF91CF9176
S11306A062CF80917101813261F48091E800877F8B
S11306B08093E80034D160917301CE01DF91CF9132
S11306C052CFDF91CF910895209177013091780135
S11306D02617370748F06115710539F42091E800B1
S11306E02E772093E80001C0B901FC0120E06115D8
S11306F07105A9F1809170018823E9F18530E9F150
S11307008091E80083FD35C08091E80082FF06C037
S11307108091E80082FF26C080E008958091E8007F
S113072080FFE5CF2091F3008091F20090E0922BBE
S11307306115710551F08830910538F421912093A9
S1130740F100615071090196F3CF21E0089709F097
S113075020E08091E8008E778093E800C8CF2111D3
S1130760C9CFD6CF80917001882329F0853081F6D6
S113077004C081E0089582E0089583E00895209103
S11307807701309178012617370748F06115710514
S113079039F42091E8002E772093E80001C0B901D4
S11307A0FC0120E061157105C1F18091700188237D
S11307B009F43FC0853009F43EC08091E80083FD10
S11307C036C08091E80082FF06C08091E80082FF75
S11307D027C080E008958091E80080FFE3CF209156
S11307E0F3008091F20090E0922B6115710559F0AD
S11307F08830910540F424912093F10031966150A2
S113080071090196F2CF21E0089709F020E0809168
S1130810E8008E778093E800C5CF2111C6CFD5CFED
S113082080917001882329F0853079F604C081E035
S1130830089582E0089583E00895982F973058F53D
S11308409093E900981739F07091EC002091ED0035
S11308505091F00003C0242F762F50E021FF19C0DF
S11308603091EB003E7F3093EB003091ED003D7F03
S11308703093ED003091EB0031603093EB007093D6
S1130880EC002093ED005093F0002091EE0027FF40
S113089007C09F5FD3CF8F708093E90081E00895F4
S11308A080E008950F931F93CF93DF93062FEC01FD
S11308B010E0101771F19881992341F12C81E9819D
S11308C0FA817B81892F8F70873010F080E022C0FD
S11308D0223010F056E001C052E028E030E040E061
S11308E02E173F0720F44F5F220F331FF9CF429595
S11308F0407F452B692F661F6627661F90E4799F0A
S113090090011124622B99DF882301F31F5F259640
S1130910D0CF81E0DF91CF911F910F910895809105
S1130920710187FD05C08091E80080FF0EC012C0F0
S11309308091E80082FD05C0809170018111F8CF9B
S113094008958091E8008B7708C08091700181112F
S1130950EACF08958091E8008E778093E8000895A7
S11309608091E4009091E50045E62091EC0020FFA1
S113097021C02091E80020FD21C020917001222394
S113098089F0253089F02091EB0025FD0FC02091DE
S1130990E4003091E5002817390739F3415041F05C
S11309A0C901E3CF82E0089583E0089581E00895CA
S11309B084E008952091E80022FFDFCF80E00895CD
S11309C00F931F93CF93DF934BD052D0C8EDD0E059
S11309D088818F77888388818068888388818F7DE8
S11309E0888319BC1092700110926C0110926E01F0
S11309F010926D0100EE10E0F80180818B7F8083FE
S1130A0088818160888342E060E080E016DFE1EE67
S1130A10F0E080818E7F8083E2EEF0E0808181606F
S1130A208083808188608083F80180818E7F8083C9
S1130A30888180618883DF91CF911F910F91089500
S1130A40E8EDF0E080818F7E8083E7EDF0E0808147
S1130A508160808384E082BF81E080936F01B0CFA6
S1130A60E8EDF0E080818E7F80831092E2000895AB
S1130A701092DA001092E10008951F920F920FB6BF
S1130A800F9211242F933F934F935F936F937F9310
S1130A908F939F93AF93BF93EF93FF938091E10064
S1130AA082FF0AC08091E20082FF06C08091E100CB
S1130AB08B7F8093E1002CD28091DA0080FF1DC0EF
S1130AC08091D80080FF19C08091DA008E7F8093D6
S1130AD0DA008091D90080FF0CC080E189BD82E1F9
S1130AE089BD09B400FEFDCF81E08093700109D374
S1130AF004C019BC1092700106D38091E10080FFFC
S1130B0018C08091E20080FF14C08091E2008E7FC3
S1130B108093E2008091E20080618093E200809102
S1130B20D80080628093D80019BC85E0809370015E
S1130B30EFD18091E10084FF2FC08091E20084FF17
S1130B402BC080E189BD82E189BD09B400FEFDCFDF
S1130B508091D8008F7D8093D8008091E1008F7EB2
S1130B608093E1008091E2008F7E8093E200809187
S1130B70E20081608093E20080916C01882311F08F
S1130B8084E007C08091E30087FF02C083E001C0D6
S1130B9081E080937001BCD18091E10083FF27C084
S1130BA08091E20083FF23C08091E100877F8093DE
S1130BB0E10082E08093700110926C018091E10069
S1130BC08E7F8093E1008091E2008E7F8093E2002B
S1130BD08091E20080618093E20042E060E080E086
S1130BE02CDE8091F00088608093F00091D1FF9119
S1130BF0EF91BF91AF919F918F917F916F915F9191
S1130C004F913F912F910F900FBE0F901F90189509
S1130C101F920F920FB60F9211242F933F934F936D
S1130C205F936F937F938F939F93AF93BF93CF9370
S1130C30EF93FF93C091E900CF708091EC00109284
S1130C40E9008091F000877F8093F00078941BD0B6
S1130C501092E9008091F00088608093F000C093C6
S1130C60E900FF91EF91CF91BF91AF919F918F9147
S1130C707F916F915F914F913F912F910F900FBE94
S1130C800F901F9018951F93CF93DF93CDB7DEB7C6
S1130C90AA970FB6F894DEBF0FBECDBFE1E7F1E02F
S1130CA08091F100819321E0E937F207C9F736D248
S1130CB08091E80083FF14C1209171013091720189
S1130CC0832F90E08A30910508F00AC1FC01EA5AAA
S1130CD0FF4F18C3203881F0223809F001C18091F8
S1130CE075018F708093E9008091EB0085FB882764
S1130CF080F91092E90006C080916D0190916E0117
S1130D00911182609091E800977F9093E80080931E
S1130D10F1001092F100C1C0822F8D7F09F0E0C074
S1130D20222319F0223061F0DBC0809173018130FD
S1130D3009F0D6C0333009F080E080936E0128C0FA
S1130D4080917301811124C0209175012F7009F4E1
S1130D50C7C02093E9008091EB0080FF19C0809107
S1130D60EB00333011F4806211C080618093EB009A
S1130D7081E090E0022E01C0880F0A94EAF7809384
S1130D80EA001092EA008091EB0088608093EB0007
S1130D901092E9008091E800877F82C02111A0C0F1
S1130DA0109173011F778091E3008078812B8093E9
S1130DB0E3008091E800877F8093E800B0DD8091B4
S1130DC0E80080FFFCCF8091E30080688093E3001B
S1130DD0112311F083E001C082E08093700180C090
S1130DE02058223008F07CC08091730190917401E6
S1130DF08C3D23E0920771F583E08A838AE289833C
S1130E004FB7F894DE01139620E03EE051E2E32F61
S1130E10F0E050935700E49120FF03C0E295EF7097
S1130E203F5FEF708E2F90E0EA3010F0C79601C05C
S1130E30C0968D939D932F5F243149F74FBF8091C6
S1130E40E800877F8093E8006AE270E0CE010196B3
S1130E503BDC12C0AE014F5F5F4F6091750193D9C7
S1130E60009709F43DC02091E800277F2093E80013
S1130E70BC0189819A8183DC8091E8008B7780931F
S1130E80E8002EC0203861F58091E800877F8093C8
S1130E90E80080916C018093F1008091E8008E77E6
S1130EA08093E8003CDD1CC021111AC090917301AD
S1130EB09230B0F48091E800877F8093E8009093AB
S1130EC06C012DDD80916C01811104C08091E300DF
S1130ED087FF02C084E001C081E08093700115D1D6
S1130EE08091E80083FF0AC08091E800877F8093A7
S1130EF0E8008091EB0080628093EB00AA960FB625
S1130F00F894DEBF0FBECDBFDF91CF911F9108953E
S1130F100895CF93809170018823A9F08091E9000E
S1130F208F709091EC0090FF02C090E801C090E0B7
S1130F30C92FC82B1092E9008091E80083FDA3DE3D
S1130F40CF70C093E900CF91089525B1982F917087
S1130F5090952160922395B92BB1982F907290951A
S1130F60206292239BB998B180789F77892B88B9A6
S1130F70089584B7877F84BF88E10FB6F89480937F
S1130F806000109260000FBE90E080E80FB6F89405
S1130F9080936100909361000FBE209A289A559A1D
S1130FA05D9A3F9A47984CDD8BD92FEF81EE94E000
S1130FB0215080409040E1F700C0000072D98BE1DD
S1130FC091E073D93E9A469A809A80B310BA81B35D
S1130FD011BA089581B311BA2FEF87EE93E021502F
S1130FE080409040E1F700C00000889A899A9AB145
S1130FF08AB11AB880E04A9909C0EFECF7E031975A
S1131000F1F700C000008F5F8F3FA9F79AB991B341
S113101011BA889A0895CF93DF93CDB7DEB72A9794
S11310200FB6F894DEBF0FBECDBFA3DF6EE571E04F
S113103080E091E085DA81E088DF78946EE571E004
S113104088E291E092D19924939480E2A82E90E8CA
S1131050B92E8E010F5F1F4F25E5E22E21E0F22EFF
S113106093B8A9B8B6B82FEFC21AD20A8FEF94E397
S11310702CE0815090402040E1F700C0000011D9DD
S113108081E591E012D94AE050E0B801C60140D1AF
S1131090C8010BD980E403D99DDF80937901682FBF
S11310A070E080E090E03FD020E030E046E950E49A
S11310B075D09F938F937F936F93FF92EF921F93BB
S11310C00F937BD16EE571E0C8014FD16EE571E0FD
S11310D088E591E04AD1809179014AE050E0B80175
S11310E090E016D1C801E1D880E091E0EBD980E02E
S11310F091E0D2D90EDF0FB6F894DEBF0FBECDBF9C
S1131100AFCF80EA22CF81E020CF80E091E03AD9CE
S1131110882311F080E201C081E817CF80E091E0DC
S113112023CAE89409C097FB3EF490958095709586
S113113061957F4F8F4F9F4F9923A9F0F92F96E91F
S1131140BB279395F695879577956795B795F11194
S1131150F8CFFAF4BB0F11F460FF1BC06F5F7F4F31
S11311608F4F9F4F16C0882311F096E911C0772343
S113117021F09EE8872F762F05C0662371F096E84C
S1131180862F70E060E02AF09A95660F771F881F1B
S1131190DAF7880F9695879597F908950BD078C05C
S11311A069D028F06ED018F0952309F05AC05FC0BA
S11311B01124A2C07ED0A0F3959FD1F3950F50E0E7
S11311C0551F629FF001729FBB27F00DB11D639FF5
S11311D0AA27F00DB11DAA1F649F6627B00DA11D9B
S11311E0661F829F2227B00DA11D621F739FB00D41
S11311F0A11D621F839FA00D611D221F749F3327B1
S1131200A00D611D231F849F600D211D822F762F49
S11312106A2F11249F5750408AF0E1F088234AF046
S1131220EE0FFF1FBB1F661F771F881F9150504092
S1131230A9F79E3F510570F014C05EC05F3FECF308
S1131240983EDCF3869577956795B795F795E7957E
S11312509F5FC1F7FE2B880F911D9695879597F98F
S1131260089597F99F6780E870E060E008959FEF24
S113127080EC089500240A94161617061806090629
S1131280089500240A9412161306140605060895F8
S1131290092E0394000C11F4882352F0BB0F40F480
S11312A0BF2B11F460FF04C06F5F7F4F8F4F9F4FC0
S11312B0089557FD9058440F551F59F05F3F71F042
S11312C04795880F97FB991F61F09F3F79F08795A9
S11312D00895121613061406551FF2CF4695F1DF32
S11312E008C0161617061806991FF1CF86957105C2
S11312F0610508940895E894BB2766277727CB01F6
S113130097F90895EE0FFF1F0590F491E02D0994CD
S11313104532510518F4423008F004C0FB01108234
S1131320CB010895BB274A3031F4992322F4BDE25E
S1131330909581959F4F01C0BB27FB015527AA2794
S1131340880F991FAA1FA41710F0A41B839550514E
S1131350B9F7A05DAA3308F0A95DA193009779F7C6
S1131360B111B1931192CB0120C2EF92FF920F936E
S11313701F93CF93DF938B01DB0113962C9121FFF5
S113138016C0EC01E12CF12C8991882371F0D8016D
S11313901896ED91FC911997B8010995892BA1F341
S11313A0EE24EA94FF24FA94EFCFC70102C08FEF32
S11313B09FEFCDB7DEB7E6E0C0C2AEE0B0E0E2EE4C
S11313C0F9E0A1C20D891E8986E08C831A83098302
S11313D08FEF9FE79E838D83AE01475E5F4F6F89DA
S11313E0788DCE01019608D0EF81F885E00FF11FCA
S11313F010822E96E4E0A3C2ACE0B0E0E1E0FAE0B3
S113140074C27C016B018A01FC01178216828381FC
S113141081FFB0C1CE0101964C01F7019381F60121
S113142093FD859193FF81916F01882309F49EC1F7
S1131430853239F493FD859193FF81916F01853253
S113144021F4B70190E0C1D1E8CF512C312C20E038
S11314502032A0F48B3269F030F4803259F08332B8
S113146069F420612CC08D3239F0803339F4216065
S113147026C02260246023C0286021C027FD27C025
S113148030ED380F3A3078F426FF06C0FAE05F9E5C
S1131490300D1124532E13C08AE0389E300D1124D0
S11314A0332E20620CC08E3221F426FD5FC12064ED
S11314B006C08C3611F4206802C0883641F4F60167
S11314C093FD859193FF81916F018111C1CF982F75
S11314D09F7D9554933028F40C5F1F4FFFE3F983ED
S11314E00DC0833631F0833771F0833509F057C06E
S11314F021C0F801808189830E5F1F4F44244394E7
S1131500512C540114C03801F2E06F0E711CF80123
S1131510A080B18026FF03C0652D70E002C06FEF8C
S11315207FEFC5012C8736D12C0183012C852F77C1
S1131530222E16C03801F2E06F0E711CF801A08053
S1131540B18026FF03C0652D70E002C06FEF7FEF0E
S1131550C5012C8714D12C012C852068222E8301EF
S113156023FC19C0832D90E048165906A0F4B70156
S113157080E290E02AD13A94F5CFF50127FC8591D9
S113158027FE81915F01B70190E01FD131103A9499
S1131590F1E04F1A51084114510479F7DEC0843642
S11315A011F0893631F5F80127FF07C06081718198
S11315B0828193810C5F1F4F08C0608171818827ED
S11315C077FD8095982F0E5F1F4F2F76B22E97FFD1
S11315D009C090958095709561957F4F8F4F9F4F6F
S11315E02068B22E2AE030E0A40121D1A82EA81848
S11315F043C0853729F42F7EB22E2AE030E025C07F
S1131600F22FF97FBF2E8F36C1F018F4883579F0A8
S1131610ADC0803719F0883721F0A8C02F2F206182
S1131620B22EB4FE0DC08B2D8460B82E09C024FFE9
S11316300AC09F2F9660B92E06C028E030E005C08E
S113164020E130E002C020E132E0F801B7FE07C03B
S113165060817181828193810C5F1F4F06C060811C
S1131660718180E090E00E5F1F4FA401E0D0A82EAE
S1131670A818FB2DFF77BF2EB6FE0BC02B2D2E7F97
S1131680A51450F4B4FE0AC0B2FC08C02B2D2E7E63
S113169005C07A2C2B2D03C07A2C01C0752C24FF95
S11316A00DC0FE01EA0DF11D8081803311F4297E05
S11316B009C022FF06C07394739404C0822F8678F5
S11316C009F0739423FD12C020FF06C05A2C731432
S11316D018F4530C5718732C731460F4B70180E298
S11316E090E02C8772D073942C85F6CF731410F489
S11316F0371801C0312C24FF11C0B70180E390E0FA
S11317002C8763D02C8522FF16C021FF03C088E5F7
S113171090E002C088E790E0B7010CC0822F867881
S113172051F021FD02C080E201C08BE227FD8DE271
S1131730B70190E04AD0A51430F4B70180E390E0FB
S113174044D05A94F8CFAA94F401EA0DF11D808193
S1131750B70190E03AD0A110F6CF332009F45DCE62
S1131760B70180E290E031D03A94F7CFF701868157
S1131770978102C08FEF9FEF2C96E2E1D2C0FC016B
S11317800590615070400110D8F7809590958E0FA8
S11317909F1F0895FC016150704001900110D8F71B
S11317A0809590958E0F9F1F0895DC01FC01672F93
S11317B071917723E1F7329704C07C916D93708324
S11317C06291AE17BF07C8F308950F931F93CF9389
S11317D0DF93182F092FEB018B8181FD03C08FEF5D
S11317E09FEF20C082FF10C04E815F812C813D811C
S11317F0421753077CF4E881F9819F012F5F3F4F23
S113180039832883108306C0E885F985812F0995DB
S1131810892B29F72E813F812F5F3F4F3F832E83F2
S1131820812F902FDF91CF911F910F910895FA018D
S1131830AA27283051F1203181F1E8946F936E7F0B
S11318406E5F7F4F8F4F9F4FAF4FB1E03ED0B4E0FC
S11318503CD0670F781F891F9A1FA11D680F791F3D
S11318608A1F911DA11D6A0F711D811D911DA11D4E
S113187020D009F468943F912AE0269F112430195E
S1131880305D3193DEF6CF010895462F4770405DF9
S11318904193B3E00FD0C9F7F6CF462F4F70405DA8
S11318A04A3318F0495D31FD4052419302D0A9F703
S11318B0EACFB4E0A6959795879577956795BA95FD
S11318C0C9F700976105710508959B01AC010A2EC3
S11318D006945795479537952795BA95C9F7620F9A
S11318E0731F841F951FA01D08952F923F924F923E
S11318F05F926F927F928F929F92AF92BF92CF929C
S1131900DF92EF92FF920F931F93CF93DF93CDB7A4
S1131910DEB7CA1BDB0B0FB6F894DEBF0FBECDBF1C
S113192009942A88398848885F846E847D848C84ED
S11319309B84AA84B984C884DF80EE80FD800C81F6
S11319401B81AA81B981CE0FD11D0FB6F894DEBFD9
S10F19500FBECDBFED010895F894FFCF49
S113195C0083100000010410000001820800000143
S113196C000000000000000000000048656C6C6F73
S113197C20576F726C64210057656C636F6D652022
S113198C746F204F7572204475616C20536C6F70AA
S113199C6520436F6E74726F6C6C657221200D0A36
S11119AC00486920002566006D56200D0A00D3
S9030000FC
