S0140000566F6C746D657465722056312E73726563A7
S1130000A5C00000BFC00000BDC00000BBC0000010
S1130010B9C00000B7C00000B5C00000B3C0000004
S1130020B1C00000AFC00000C2C500008BC6000014
S1130030A9C00000A7C00000A5C00000A3C0000024
S1130040A1C000009FC000009DC000009BC0000034
S113005099C0000097C0000095C0000093C0000044
S113006091C000008FC000008DC000008BC0000054
S113007089C0000087C0000085C0000083C0000064
S113008081C000007FC000007DC000007BC0000074
S113009079C0000077C0000075C0000073C0000084
S11300A071C000006FC000006DC000000407260787
S11300B00A0826070A0868078A070A08DC07EE0701
S11300C01C034C005500460041002000430044003E
S11300D043002000440065006D006F000000180319
S11300E04400650061006E002000430061006D0063
S11300F065007200610000000403090409023E0067
S1130100020100C0320904000001020201000524BA
S113011000100104240206052406000107058203D9
S11301200800FF09040100020A0000000705040298
S113013010000507058302100005120110010200DA
S11301400008EB03442001000102DC0111241FBE5E
S1130150CFEFDAE0DEBFCDBF11E0A0E0B1E0E4E232
S1130160F2E102C005900D92AA35B107D9F721E05A
S1130170AAE5B1E001C01D92A737B207E1F7C7D7DE
S11301800C9410093DCF292F33272230310559F023
S11301902330310569F021303105F9F482E190E032
S11301A02AE331E01EC08EE390E02CEF30E019C06A
S11301B099278130910541F08230910541F0892BD6
S11301C061F4E8EFF0E005C0EEEDF0E002C0E0EC31
S11301D0F0E0849190E09F0104C080E090E020E092
S11301E030E0FA0131832083089576980895769A51
S11301F00895AF92BF92CF92DF92EF92FF920F9346
S11302001F93CF93DF931F92CDB7DEB7882319F0E6
S1130210898372D0898190915A01992331F09AE1AE
S11302209A95F1F700C010925A01882329F05E9A3A
S113023081E080935A0101C05E985F9A24982598C2
S113024026982798D4DFE2E0EA95F1F700C0B3B02E
S1130250BB1CBB24BB1CB29440EFB4221E9B03C046
S113026030E2F32E01C0F12C1D9B02C000E401C05A
S113027000E01C9B02C010E801C010E0B6DFF2E011
S1130280FA95F1F700C0B3DF82E08A95F1F700C078
S1130290A3B0AA1CAA24AA1C1E9B03C022E0C22E3F
S11302A001C0C12C1D9B03C094E0D92E01C0D12CE8
S11302B01C9B03C088E0E82E01C0E12C96DF249A41
S11302C0259A269A279A2C9A2D9A2E9A2F9A5F98D5
S11302D08B2D8A298F29802B812B8C298D298E297E
S11302E00F90DF91CF911F910F91FF90EF90DF90CE
S11302F0CF90BF90AF900895CF93DF93C1EDD3E03B
S113030080E077DF87FF03C021972097C9F7DF914B
S1130310CF9108951F93CF93DF931F92CDB7DEB78C
S1130320182F6983E9DF80915A016981882331F0AC
S11303308AE18A95F1F700C010925A01662329F0E8
S11303405E9A81E080935A0103C05E9810925A012C
S113035017FF02C02C9A01C02C9816FF02C02D9AD8
S113036001C02D9815FF02C02E9A01C02E9814FFCB
S113037002C02F9A01C02F9800C039DFE2E0EA954D
S1130380F1F700C032DF13FF02C02C9A01C02C9891
S113039012FF02C02D9A01C02D9811FF02C02E9A9F
S11303A001C02E9810FF02C02F9A01C02F9800C0E0
S11303B01EDFF2E0FA95F1F700C017DF2C9A2D9AB0
S11303C02E9A2F9A0F90DF91CF911F91089560E09C
S11303D0A1CF81E0FCCF61E09DCFCF93DF93EC010F
S11303E08991882311F0F7DFFBCFDF91CF91089536
S11303F06E9A569A579A249A259A269A279AF5DE3F
S11304005E985F982C9A2D9A2E9A2F9A8FE59AEEE1
S11304100197F1F700C000002C982D9800C0E7DE8A
S113042092E09A95F1F700C0E0DE8FE090E4019746
S1130430F1F700C00000DBDE92E09A95F1F700C00E
S1130440D4DE8FE891E00197F1F700C00000CFDE21
S113045092E09A95F1F700C0C8DE85ED8A95F1F730
S113046000002F9800C0C3DE92E09A95F1F700C017
S1130470BCDE85ED8A95F1F700002F9800C0B7DE49
S113048092E09A95F1F700C0B0DE82E08A95F1F728
S113049000C02C9A00C0ABDE92E09A95F1F700C040
S11304A0A4DE85ED8A95F1F7000088E090DF91DF06
S11304B086E08DDF8CE08BCFCF93DF93EC01FC01E2
S11304C070968BE0DF011D928A95E9F782E08C83B8
S11304D0898783E08E8761E0CE0101967DD28823EF
S11304E061F061E0CE01069677D2882331F061E0B5
S11304F0CE010B96DF91CF916FC280E0DF91CF9157
S11305000895CF93C62F20916D012430F1F4FC019E
S11305104489558966897789452B462B472BA9F051
S113052081818F708093E9008091E80085FF04C089
S1130530C093F10080E00AC08091E8008E77809338
S1130540E800A8D28823A1F301C082E0CF910895E6
S1130550FB01682F84859585D4DF21E030E081118B
S113056002C020E030E088279927821B930B08956E
S113057020916D01243041F5FC0144895589668937
S11305807789452B462B472BF9F081818F70809317
S1130590E9002091F3008091F20090E0922B892BE6
S11305A089F09091E8008091E8008E778093E800CC
S11305B095FD08C06FD2811108C08091E8008E7744
S11305C08093E80080E0089582E0089520916D0111
S11305D0243089F4FC014489558966897789452B3F
S11305E0462B472B41F021812F702093E900209165
S11305F0E80020FDBDCF089520916D01243019F04D
S11306008FEF9FEF0895FC014489558966897789A6
S1130610452B462B472BA1F386818F708093E900ED
S11306208091E80082FFECCF2091F3008091F200EA
S113063090E0922B892B21F02091F10030E002C050
S11306402FEF3FEF4091F3008091F20090E0942B64
S1130650892B29F48091E8008B778093E800C90105
S11306600895FC0184859585C7DF97FF02C08EEF4E
S11306709FEF0895FB012EE0DB011D922A95E9F717
S113068023E0238328EA32E03187208721E333E023
S1130690338722879587848708950895CF93DF93BE
S11306A0EC018091E80083FFA6C0888190E020914E
S11306B07201309173012817390709F09CC08091A9
S11306C06F01813261F020F4803209F43EC093C09E
S11306D0823209F46CC0833209F47DC08CC08091ED
S11306E06E01813A09F087C08091E800877F80938A
S11306F0E8008091E80080FFFCCF4C895D896E8919
S11307007F894093F100BB27A72F962F852F8093D5
S1130710F100CB01AA27BB278093F100472F55276F
S1130720662777274093F100888D8093F100898DA7
S11307308093F1008A8D8093F1008091E8008E7798
S11307408093E800DF91CF9184C180916E01813262
S113075009F051C08091E800877F8093E800809180
S1130760E80082FD05C080916D018111F8CF43C07E
S11307703091F1002091F1009091F1008091F1000D
S11307803C8B2D8B9E8B8F8B8091F100888F809179
S1130790F100898F8091F1008A8F8091E8008B7736
S11307A08093E80056D1CE01DF91CF9176CF80912E
S11307B06E01813201F58091E800877F8093E80023
S11307C048D18091700190917101998B888BCE01F1
S11307D0DF91CF9162CF80916E01813261F480917B
S11307E0E800877F8093E80034D160917001CE01E6
S11307F0DF91CF9152CFDF91CF9108952091740171
S1130800309175012617370748F06115710539F4E1
S11308102091E8002E772093E80001C0B901FC0183
S113082020E061157105A9F180916D018823E9F13A
S11308308530E9F18091E80083FD35C08091E800BE
S113084082FF06C08091E80082FF26C080E0089500
S11308508091E80080FFE5CF2091F3008091F200C1
S113086090E0922B6115710551F08830910538F4B0
S113087021912093F100615071090196F3CF21E099
S1130880089709F020E08091E8008E778093E800D3
S1130890C8CF2111C9CFD6CF80916D01882329F00B
S11308A0853081F604C081E0089582E0089583E0F4
S11308B0089520917401309175012617370748F087
S11308C06115710539F42091E8002E772093E80032
S11308D001C0B901FC0120E061157105C1F18091ED
S11308E06D01882309F43FC0853009F43EC080912E
S11308F0E80083FD36C08091E80082FF06C0809145
S1130900E80082FF27C080E008958091E80080FF1E
S1130910E3CF2091F3008091F20090E0922B6115D7
S1130920710559F08830910540F424912093F10029
S11309303196615071090196F2CF21E0089709F0D0
S113094020E08091E8008E778093E800C5CF2111E4
S1130950C6CFD5CF80916D01882329F0853079F6F3
S113096004C081E0089582E0089583E00895982FFB
S1130970973058F59093E900981739F07091EC008E
S11309802091ED005091F00003C0242F762F50E009
S113099021FF19C03091EB003E7F3093EB00309182
S11309A0ED003D7F3093ED003091EB0031603093EA
S11309B0EB007093EC002093ED005093F000209135
S11309C0EE0027FF07C09F5FD3CF8F708093E900AD
S11309D081E0089580E008950F931F93CF93DF93F0
S11309E0062FEC0110E0101771F19881992341F161
S11309F02C81E981FA817B81892F8F70873010F0F7
S1130A0080E022C0223010F056E001C052E028E01D
S1130A1030E040E02E173F0720F44F5F220F331FD2
S1130A20F9CF4295407F452B692F661F6627661FC5
S1130A3090E4799F90011124622B99DF882301F3BC
S1130A401F5F2596D0CF81E0DF91CF911F910F9149
S1130A50089580916E0187FD05C08091E80080FFB4
S1130A600EC012C08091E80082FD05C080916D0126
S1130A708111F8CF08958091E8008B7708C08091A8
S1130A806D018111EACF08958091E8008E778093FB
S1130A90E80008958091E4009091E50045E62091F6
S1130AA0EC0020FF21C02091E80020FD21C020910E
S1130AB06D01222389F0253089F02091EB0025FD7A
S1130AC00FC02091E4003091E5002817390739F36D
S1130AD0415041F0C901E3CF82E0089583E00895D5
S1130AE081E0089584E008952091E80022FFDFCF9B
S1130AF080E008950F931F93CF93DF934BD052D090
S1130B00C8EDD0E088818F77888388818068888366
S1130B1088818F7D888319BC10926D0110926901C0
S1130B2010926B0110926A0100EE10E0F8018081CE
S1130B308B7F808388818160888342E060E080E0ED
S1130B4016DFE1EEF0E080818E7F8083E2EEF0E05C
S1130B50808181608083808188608083F8018081C6
S1130B608E7F8083888180618883DF91CF911F91FC
S1130B700F910895E8EDF0E080818F7E8083E7EDAA
S1130B80F0E080818160808384E082BF81E0809393
S1130B906C01B0CFE8EDF0E080818E7F808310920D
S1130BA0E20008951092DA001092E10008951F9275
S1130BB00F920FB60F9211242F933F934F935F938D
S1130BC06F937F938F939F93AF93BF93EF93FF9311
S1130BD08091E10082FF0AC08091E20082FF06C09A
S1130BE08091E1008B7F8093E1002CD28091DA0028
S1130BF080FF1DC08091D80080FF19C08091DA0069
S1130C008E7F8093DA008091D90080FF0CC080E150
S1130C1089BD82E189BD09B400FEFDCF81E08093E6
S1130C206D01A5D204C019BC10926D01A2D28091AD
S1130C30E10080FF18C08091E20080FF14C0809121
S1130C40E2008E7F8093E2008091E20080618093D5
S1130C50E2008091D80080628093D80019BC85E0BE
S1130C6080936D01EFD18091E10084FF2FC08091CA
S1130C70E20084FF2BC080E189BD82E189BD09B413
S1130C8000FEFDCF8091D8008F7D8093D8008091A5
S1130C90E1008F7E8093E1008091E2008F7E80935B
S1130CA0E2008091E20081608093E200809169011A
S1130CB0882311F084E007C08091E30087FF02C01D
S1130CC083E001C081E080936D01BCD18091E1009B
S1130CD083FF27C08091E20083FF23C08091E1005D
S1130CE0877F8093E10082E080936D011092690117
S1130CF08091E1008E7F8093E1008091E2008E7FFD
S1130D008093E2008091E20080618093E20042E0FF
S1130D1060E080E02CDE8091F00088608093F00039
S1130D2091D1FF91EF91BF91AF919F918F917F915D
S1130D306F915F914F913F912F910F900FBE0F9044
S1130D401F9018951F920F920FB60F9211242F9394
S1130D503F934F935F936F937F938F939F93AF933F
S1130D60BF93CF93EF93FF93C091E900CF7080912D
S1130D70EC001092E9008091F000877F8093F000EE
S1130D8078941BD01092E9008091F00088608093E1
S1130D90F000C093E900FF91EF91CF91BF91AF9123
S1130DA09F918F917F916F915F914F913F912F917F
S1130DB00F900FBE0F901F9018951F93CF93DF9342
S1130DC0CDB7DEB7AA970FB6F894DEBF0FBECDBF7E
S1130DD0EEE6F1E08091F100819321E0E637F2073D
S1130DE0C9F7D2D18091E80083FF14C120916E012C
S1130DF030916F01832F90E08A30910508F00AC189
S1130E00FC01EA5AFF4FC3C1203881F0223809F0AF
S1130E1001C1809172018F708093E9008091EB0091
S1130E2085FB882780F91092E90006C080916A0149
S1130E3090916B01911182609091E800977F90935B
S1130E40E8008093F1001092F100C1C0822F8D7FE1
S1130E5009F0E0C0222319F0223061F0DBC0809158
S1130E607001813009F0D6C0333009F080E08093FE
S1130E706B0128C080917001811124C020917201FE
S1130E802F7009F4C7C02093E9008091EB0080FF24
S1130E9019C08091EB00333011F4806211C080617D
S1130EA08093EB0081E090E0022E01C0880F0A9449
S1130EB0EAF78093EA001092EA008091EB008860E0
S1130EC08093EB001092E9008091E800877F82C054
S1130ED02111A0C0109170011F778091E3008078E8
S1130EE0812B8093E3008091E800877F8093E80062
S1130EF0B0DD8091E80080FFFCCF8091E300806842
S1130F008093E300112311F083E001C082E0809319
S1130F106D0180C02058223008F07CC0809170019F
S1130F20909171018C3D23E0920771F583E08A83EF
S1130F308AE289834FB7F894DE01139620E03EE0FD
S1130F4051E2E32FF0E050935700E49120FF03C0F7
S1130F50E295EF703F5FEF708E2F90E0EA3010F073
S1130F60C79601C0C0968D939D932F5F243149F796
S1130F704FBF8091E800877F8093E8006AE270E0C9
S1130F80CE0101963BDC12C0AE014F5F5F4F609112
S1130F907201F9D8009709F43DC02091E800277F39
S1130FA02093E800BC0189819A8183DC8091E80068
S1130FB08B778093E8002EC0203861F58091E8009B
S1130FC0877F8093E800809169018093F10080918C
S1130FD0E8008E778093E8003CDD1CC021111AC024
S1130FE0909170019230B0F48091E800877F8093F3
S1130FF0E800909369012DDD80916901811104C09D
S11310008091E30087FF02C084E001C081E0809307
S11310106D01B1D08091E80083FF0AC08091E8009F
S1131020877F8093E8008091EB0080628093EB00DF
S1131030AA960FB6F894DEBF0FBECDBFDF91CF9155
S11310401F9108950895CF9380916D018823A9F08D
S11310508091E9008F709091EC0090FF02C090E8BD
S113106001C090E0C92FC82B1092E9008091E800DC
S113107083FDA3DECF70C093E900CF91089525B11D
S1131080982F917090952160922395B92BB1982F48
S113109090729095206292239BB998B180789F7743
S11310A0892B88B9089584B7877F84BF88E10FB6F8
S11310B0F89480936000109260000FBE90E080E886
S11310C00FB6F89480936100909361000FBE90D99D
S11310D0509A8AB11AB88BB11BB8209A289A559A9B
S11310E05D9A3F9A479846DD74D98BE191E075C9C2
S11310F0589A2FEF87EE93E0215080409040E1F71B
S113110000C00000589A80E8809376010895CBDFF0
S11311106BE571E080E091E0ADDA81E0B0DF7894D6
S11311206BE571E088E291E038D011E0D0E2C0E8EC
S113113013B9D9B9C6B92FEF83ED90E3215080409C
S11311409040E1F700C0000081E591E046D9D0DF8E
S1131150809376016BE571E084E591E01ED080E038
S113116091E04ADA80E091E031DA6DDFE1CF80EAA4
S113117086CF81E084CF80E091E09ED9882311F06E
S113118080E201C081E87BCF80E091E087CAEE0F66
S1131190FF1F0590F491E02D0994EF92FF920F93B5
S11311A01F93CF93DF938B01DB0113962C9121FFC7
S11311B016C0EC01E12CF12C8991882371F0D8013F
S11311C01896ED91FC911997B8010995892BA1F313
S11311D0EE24EA94FF24FA94EFCFC70102C08FEF04
S11311E09FEFCDB7DEB7E6E00CC02A88398848887F
S11311F05F846E847D848C849B84AA84B984C8842F
S1131200DF80EE80FD800C811B81AA81B981CE0F25
S1131210D11D0FB6F894DEBF0FBECDBFED0108950A
S1071220F894FFCF6C
S11312240083100000010410000001820800000182
S1131234000000000000000000000048656C6C6FB2
S113124420576F726C64210057656C636F6D652061
S1131254746F204F7572204475616C20536C6F70E9
S11312646520436F6E74726F6C6C657221200D0A75
S10D1274004869006D56200D0A00C1
S9030000FC
