S0140000566F6C746D657465722056312E73726563A7
S1130000A5C00000BEC00000BCC00000BAC0000013
S1130010B8C00000B6C00000B4C00000B2C0000008
S1130020B0C00000AEC000002CC50000F5C5000043
S1130030A8C00000A6C00000A4C00000A2C0000028
S1130040A0C000009EC000009CC000009AC0000038
S113005098C0000096C0000094C0000092C0000048
S113006090C000008EC000008CC000008AC0000058
S113007088C0000086C0000084C0000082C0000068
S113008080C000007EC000007CC000007AC0000078
S113009078C0000076C0000074C0000072C0000088
S11300A070C000006EC000006CC000006E069006B8
S11300B0740790067407D206F406740746075807B7
S11300C01C034C005500460041002000430044003E
S11300D043002000440065006D006F000000180319
S11300E04400650061006E002000430061006D0063
S11300F065007200610000000403090409023E0067
S1130100020100C0320904000001020201000524BA
S113011000100104240206052406000107058203D9
S11301200800FF09040100020A0000000705040298
S113013010000507058302100005120110010200DA
S11301400008EB03442001000102DC0111241FBE5E
S1130150CFEFDAE0DEBFCDBF11E0A0E0B1E0E4E034
S1130160F1E102C005900D92A835B107D9F721E05D
S1130170A8E5B1E001C01D92A437B207E1F73AD770
S1130180BFC73ECF292F33272230310559F0233002
S1130190310569F021303105F9F482E190E02AE378
S11301A031E01EC08EE390E02CEF30E019C09927B7
S11301B08130910541F08230910541F0892B61F441
S11301C0E8EFF0E005C0EEEDF0E002C0E0ECF0E0B6
S11301D0849190E09F0104C080E090E020E030E052
S11301E0FA01318320830895769A82E08A95F1F7A3
S11301F000C076980895CF93DF931F92CDB7DEB7F2
S1130200662311F05E9A01C05E985F98279A269A39
S1130210259A249A2C982D982E982F9887FD2C9AFD
S113022086FD2D9A85FD2E9A84FD2F9A8983DCDF25
S11302302C982D982E982F98898183FD2C9A82FDD5
S11302402D9A81FD2E9A80FD2F9ACEDF2F9A2E9A19
S11302502D9A2C9A0F90DF91CF9108955E985F9A12
S11302602798269825982498769A82E08A95F1F71B
S113027000C083B1881F8827881F8295807F1E99BC
S113028080621D9980641C998068769892E09A95A2
S1130290F1F700C0769A92E09A95F1F700C01F99A1
S11302A081601E9982601D9984601C99886076988B
S11302B00895D4DF87FDFDCF8AE08A95F1F700C069
S11302C0CDCFCF93C82FF5DF60E08C2FCF9193CFA4
S11302D0611102C0805801C08054F3CF81E0F1CF96
S11302E0CF93C82FE6DFCA3041F4803410F480E4A1
S11302F001C080E08058CF91E4CF61E08C2FCF9192
S11303007ACFCF93DF93EC018991882311F0E8DF52
S1130310FBCFDF91CF910895CF93C82F569A579A68
S11303206E9A279A269A259A249A3E9A469A8FEF8D
S113033099EF0197F1F700C000002E9A2F9A54DF2D
S11303408FEF9DE40197F1F700C000004DDF8FEFC0
S113035090E00197F1F700C0000046DF8FEF90E0D6
S11303600197F1F700C000002F983EDF8FEF90E077
S11303700197F1F700C0000088E2A3DF88E0A1DF65
S1130380ADDF86E09EDF8C2FCF919BCFCF93DF93A1
S1130390EC01FC0170968BE0DF011D928A95E9F770
S11303A082E08C83898783E08E8761E0CE010196A9
S11303B07DD2882361F061E0CE01069677D288234E
S11303C031F061E0CE010B96DF91CF916FC280E0F6
S11303D0DF91CF910895CF93C62F20916A012430E5
S11303E0F1F4FC014489558966897789452B462BAC
S11303F0472BA9F081818F708093E9008091E800F8
S113040085FF04C0C093F10080E00AC08091E80039
S11304108E778093E800A8D28823A1F301C082E0FC
S1130420CF910895FB01682F84859585D4DF21E061
S113043030E0811102C020E030E088279927821B38
S1130440930B089520916A01243041F5FC014489FD
S1130450558966897789452B462B472BF9F081818D
S11304608F708093E9002091F3008091F20090E076
S1130470922B892B89F09091E8008091E8008E7787
S11304808093E80095FD08C06FD2811108C0809167
S1130490E8008E778093E80080E0089582E0089574
S11304A020916A01243089F4FC01448955896689C4
S11304B07789452B462B472B41F021812F702093C0
S11304C0E9002091E80020FDBDCF089520916A0144
S11304D0243019F08FEF9FEF0895FC01448955896A
S11304E066897789452B462B472BA1F386818F702C
S11304F08093E9008091E80082FFECCF2091F30023
S11305008091F20090E0922B892B21F02091F10050
S113051030E002C02FEF3FEF4091F3008091F200F2
S113052090E0942B892B29F48091E8008B778093B9
S1130530E800C9010895FC0184859585C7DF97FF0C
S113054002C08EEF9FEF0895FB012EE0DB011D92A8
S11305502A95E9F723E0238322E132E031872087DB
S11305602BE932E03387228795878487089508959D
S1130570CF93DF93EC018091E80083FFA6C08881CC
S113058090E020916F01309170012817390709F02C
S11305909CC080916C01813261F020F4803209F4B6
S11305A03EC093C0823209F46CC0833209F47DC02A
S11305B08CC080916B01813A09F087C08091E8007A
S11305C0877F8093E8008091E80080FFFCCF4C890E
S11305D05D896E897F894093F100BB27A72F962FF1
S11305E0852F8093F100CB01AA27BB278093F100CC
S11305F0472F5527662777274093F100888D8093EE
S1130600F100898D8093F1008A8D8093F1008091AF
S1130610E8008E778093E800DF91CF9184C18091C8
S11306206B01813209F051C08091E800877F80938B
S1130630E8008091E80082FD05C080916A01811183
S1130640F8CF43C03091F1002091F1009091F10076
S11306508091F1003C8B2D8B9E8B8F8B8091F100D0
S1130660888F8091F100898F8091F1008A8F809129
S1130670E8008B778093E80056D1CE01DF91CF91CB
S113068076CF80916B01813201F58091E800877FFC
S11306908093E80048D180916D0190916E01998B0F
S11306A0888BCE01DF91CF9162CF80916B01813233
S11306B061F48091E800877F8093E80034D16091F1
S11306C06D01CE01DF91CF9152CFDF91CF9108958B
S11306D020917101309172012617370748F0611596
S11306E0710539F42091E8002E772093E80001C0C9
S11306F0B901FC0120E061157105A9F180916A013D
S11307008823E9F18530E9F18091E80083FD35C063
S11307108091E80082FF06C08091E80082FF26C035
S113072080E008958091E80080FFE5CF2091F300F8
S11307308091F20090E0922B6115710551F08830A0
S1130740910538F421912093F100615071090196CB
S1130750F3CF21E0089709F020E08091E8008E773C
S11307608093E800C8CF2111C9CFD6CF80916A0108
S1130770882329F0853081F604C081E0089582E061
S1130780089583E008952091710130917201261734
S1130790370748F06115710539F42091E8002E7788
S11307A02093E80001C0B901FC0120E06115710546
S11307B0C1F180916A01882309F43FC0853009F4AE
S11307C03EC08091E80083FD36C08091E80082FF3E
S11307D006C08091E80082FF27C080E008958091E0
S11307E0E80080FFE3CF2091F3008091F20090E0D5
S11307F0922B6115710559F08830910540F42491CC
S11308002093F1003196615071090196F2CF21E0F5
S1130810089709F020E08091E8008E778093E80043
S1130820C5CF2111C6CFD5CF80916A01882329F085
S1130830853079F604C081E0089582E0089583E06C
S11308400895982F973058F59093E900981739F048
S11308507091EC002091ED005091F00003C0242F22
S1130860762F50E021FF19C03091EB003E7F30938A
S1130870EB003091ED003D7F3093ED003091EB00C3
S113088031603093EB007093EC002093ED005093B3
S1130890F0002091EE0027FF07C09F5FD3CF8F7039
S11308A08093E90081E0089580E008950F931F93F9
S11308B0CF93DF93062FEC0110E0101771F19881AC
S11308C0992341F12C81E981FA817B81892F8F70F1
S11308D0873010F080E022C0223010F056E001C0D2
S11308E052E028E030E040E02E173F0720F44F5F4D
S11308F0220F331FF9CF4295407F452B692F661F86
S11309006627661F90E4799F90011124622B99DF7A
S1130910882301F31F5F2596D0CF81E0DF91CF912B
S11309201F910F91089580916B0187FD05C08091FF
S1130930E80080FF0EC012C08091E80082FD05C06F
S113094080916A018111F8CF08958091E8008B7736
S113095008C080916A018111EACF08958091E8006E
S11309608E778093E80008958091E4009091E500EB
S113097045E62091EC0020FF21C02091E80020FDF5
S113098021C020916A01222389F0253089F0209129
S1130990EB0025FD0FC02091E4003091E5002817FD
S11309A0390739F3415041F0C901E3CF82E008959A
S11309B083E0089581E0089584E008952091E8009B
S11309C022FFDFCF80E008950F931F93CF93DF932F
S11309D04BD052D0C8EDD0E088818F77888388814E
S11309E08068888388818F7D888319BC10926A010E
S11309F010926601109268011092670100EE10E0F7
S1130A00F80180818B7F808388818160888342E0C4
S1130A1060E080E016DFE1EEF0E080818E7F80838D
S1130A20E2EEF0E080818160808380818860808351
S1130A30F80180818E7F8083888180618883DF9143
S1130A40CF911F910F910895E8EDF0E080818F7EA2
S1130A508083E7EDF0E080818160808384E082BF61
S1130A6081E080936901B0CFE8EDF0E080818E7F72
S1130A7080831092E20008951092DA001092E1004F
S1130A8008951F920F920FB60F9211242F933F9344
S1130A904F935F936F937F938F939F93AF93BF9382
S1130AA0EF93FF938091E10082FF0AC08091E200FE
S1130AB082FF06C08091E1008B7F8093E1002CD2FD
S1130AC08091DA0080FF1DC08091D80080FF19C09A
S1130AD08091DA008E7F8093DA008091D90080FFC4
S1130AE00CC080E189BD82E189BD09B400FEFDCF5F
S1130AF081E080936A01ABD204C019BC10926A01F0
S1130B00A8D28091E10080FF18C08091E20080FFAC
S1130B1014C08091E2008E7F8093E2008091E20015
S1130B2080618093E2008091D80080628093D80035
S1130B3019BC85E080936A01EFD18091E10084FFC4
S1130B402FC08091E20084FF2BC080E189BD82E147
S1130B5089BD09B400FEFDCF8091D8008F7D8093BC
S1130B60D8008091E1008F7E8093E1008091E200C3
S1130B708F7E8093E2008091E20081608093E200A6
S1130B8080916601882311F084E007C08091E3001E
S1130B9087FF02C083E001C081E080936A01BCD179
S1130BA08091E10083FF27C08091E20083FF23C08E
S1130BB08091E100877F8093E10082E080936A0165
S1130BC0109266018091E1008E7F8093E100809114
S1130BD0E2008E7F8093E2008091E2008061809346
S1130BE0E20042E060E080E02CDE8091F00088606A
S1130BF08093F00091D1FF91EF91BF91AF919F91BC
S1130C008F917F916F915F914F913F912F910F90B1
S1130C100FBE0F901F9018951F920F920FB60F9250
S1130C2011242F933F934F935F936F937F938F93ED
S1130C309F93AF93BF93CF93EF93FF93C091E9003A
S1130C40CF708091EC001092E9008091F000877FD2
S1130C508093F00078941BD01092E9008091F0000A
S1130C6088608093F000C093E900FF91EF91CF91E9
S1130C70BF91AF919F918F917F916F915F914F91B0
S1130C803F912F910F900FBE0F901F9018951F93B7
S1130C90CF93DF93CDB7DEB7AA970FB6F894DEBF34
S1130CA00FBECDBFEBE6F1E08091F100819321E02E
S1130CB0E337F207C9F7D8D18091E80083FF14C164
S1130CC020916B0130916C01832F90E08A30910563
S1130CD008F00AC1FC01EA5AFF4FC9C1203881F06B
S1130CE0223809F001C180916F018F708093E9006F
S1130CF08091EB0085FB882780F91092E90006C0FB
S1130D008091670190916801911182609091E8004F
S1130D10977F9093E8008093F1001092F100C1C096
S1130D20822F8D7F09F0E0C0222319F0223061F078
S1130D30DBC080916D01813009F0D6C0333009F0F9
S1130D4080E08093680128C080916D01811124C0E6
S1130D5020916F012F7009F4C7C02093E90080919E
S1130D60EB0080FF19C08091EB00333011F48062F6
S1130D7011C080618093EB0081E090E0022E01C0FD
S1130D80880F0A94EAF78093EA001092EA008091AF
S1130D90EB0088608093EB001092E9008091E800FA
S1130DA0877F82C02111A0C010916D011F778091AF
S1130DB0E3008078812B8093E3008091E800877FB3
S1130DC08093E800B0DD8091E80080FFFCCF809143
S1130DD0E30080688093E300112311F083E001C0F5
S1130DE082E080936A0180C02058223008F07CC0E1
S1130DF080916D0190916E018C3D23E0920771F515
S1130E0083E08A838AE289834FB7F894DE011396DC
S1130E1020E03EE051E2E32FF0E050935700E491EC
S1130E2020FF03C0E295EF703F5FEF708E2F90E0DC
S1130E30EA3010F0C79601C0C0968D939D932F5F42
S1130E40243149F74FBF8091E800877F8093E80001
S1130E506AE270E0CE0101963BDC12C0AE014F5F46
S1130E605F4F60916F018ED9009709F43DC02091C6
S1130E70E800277F2093E800BC0189819A8183DC04
S1130E808091E8008B778093E8002EC0203861F5CC
S1130E908091E800877F8093E800809166018093C9
S1130EA0F1008091E8008E778093E8003CDD1CC05F
S1130EB021111AC090916D019230B0F48091E80034
S1130EC0877F8093E800909366012DDD8091660111
S1130ED0811104C08091E30087FF02C084E001C057
S1130EE081E080936A01B7D08091E80083FF0AC053
S1130EF08091E800877F8093E8008091EB00806216
S1130F008093EB00AA960FB6F894DEBF0FBECDBF58
S1130F10DF91CF911F9108950895CF9380916A0135
S1130F208823A9F08091E9008F709091EC0090FFE4
S1130F3002C090E801C090E0C92FC82B1092E900CC
S1130F408091E80083FDA3DECF70C093E900CF91C8
S1130F50089525B1982F917090952160922395B9A9
S1130F602BB1982F90729095206292239BB998B1DF
S1130F7080789F77892B88B9089584B7877F84BF49
S1130F8088E10FB6F89480936000109260000FBE61
S1130F9090E080E80FB6F89480936100909361002C
S1130FA00FBE8CE0B9D9509A8AB11AB88BB11BB86C
S1130FB0209A289A559A5D9A3F9A479845DD8BE185
S1130FC091E09FD98BE191E09CD961E080E080D9E8
S1130FD08BE191E096C9589A2FEF87EE93E0215068
S1130FE080409040E1F700C00000589A80E8809368
S1130FF073010895C2DF68E571E080E091E0A4DA4E
S113100081E0A7DF789468E571E088E291E035D06B
S113101011E0D0E2C0E813B9D9B9C6B92FEF83ED16
S113102090E3215080409040E1F700C00000D3DFFE
S11310308093730168E571E081E591E01ED080E062
S113104091E044DA80E091E02BDA67DFE4CF80EAD4
S113105080CF81E07ECF80E091E098D9882311F0A1
S113106080E201C081E875CF80E091E081CAEE0F93
S1131070FF1F0590F491E02D0994EF92FF920F93D6
S11310801F93CF93DF938B01DB0113962C9121FFE8
S113109016C0EC01E12CF12C8991882371F0D80160
S11310A01896ED91FC911997B8010995892BA1F334
S11310B0EE24EA94FF24FA94EFCFC70102C08FEF25
S11310C09FEFCDB7DEB7E6E00CC02A8839884888A0
S11310D05F846E847D848C849B84AA84B984C88450
S11310E0DF80EE80FD800C811B81AA81B981CE0F47
S11310F0D11D0FB6F894DEBF0FBECDBFED0108952C
S1071100F894FFCF8D
S113110400831000000104100000018208000001A3
S1131114000000000000000000000048656C6C6FD3
S113112420576F726C64210057656C636F6D652082
S1131134746F204F7572204475616C20536C6F700A
S11311446520436F6E74726F6C6C657221200D0A96
S10B1154006D56200D0A000095
S9030000FC
