S0140000566F6C746D657465722056312E73726563A7
S1130000A5C000000C94B2090C94E709BCC0000020
S1130010BAC00000B8C00000B6C00000B4C0000000
S1130020B2C00000B0C0000031C50000FAC5000035
S1130030AAC00000A8C00000A6C00000A4C0000020
S1130040A2C00000A0C000009EC000009CC0000030
S11300509AC0000098C0000096C0000094C0000040
S113006092C0000015C100003EC100008CC0000019
S11300708AC0000088C0000086C0000084C0000060
S113008082C0000080C000007EC000007CC0000070
S11300907AC0000078C0000076C0000074C0000080
S11300A072C0000070C000006EC0000073069506A8
S11300B0790795067907D706F90679074B075D078F
S11300C01C034C005500460041002000430044003E
S11300D043002000440065006D006F000000180319
S11300E04400650061006E002000430061006D0063
S11300F065007200610000000403090409023E0067
S1130100020100C0320904000001020201000524BA
S113011000100104240206052406000107058203D9
S11301200800FF09040100020A0000000705040298
S113013010000507058302100005120110010200DA
S11301400008EB03442001000102DC0111241FBE5E
S1130150CFEFDAE0DEBFCDBF11E0A0E0B1E0ECEE1E
S1130160FAE102C005900D92AC38B107D9F721E04D
S1130170ACE8B1E001C01D92AD3EB207E1F70E94C8
S113018057090C94740D3CCF90917C009F7E909302
S11301907C0090917C009064982B90937C008091DB
S11301A07A00876C80937A0080917A0084FFFCCF78
S11301B080917A00806180937A0080917A008F77B1
S11301C080937A0080917800909179000895292F86
S11301D033272230310559F02330310569F02130BD
S11301E03105F9F482E190E02AE331E01EC08EE3A8
S11301F090E02CEF30E019C099278130910541F04F
S11302008230910541F0892B61F4E8EFF0E005C0FC
S1130210EEEDF0E002C0E0ECF0E0849190E09F01AC
S113022004C080E090E020E030E0FA0131832083D4
S1130230089551988BB183608BB9E9E6F0E0808131
S1130240856080838DB383608DBB089580910001A8
S1130250880F880F80930001E9B1E370E82BE093E5
S11302600001EF70F0E0E35EFE4F808190918C011D
S1130270890F80938C01843024F010928C0181E0EA
S113028008958D3F24F410928C018FEF0895089502
S11302901F920F920FB60F9211242F938F939F9357
S11302A0EF93FF938091C8009091CE008871E09104
S11302B08F01EF5FEF7120918E01E21739F0E09327
S11302C08F01F0E0EE56FE4F908301C082E08093F0
S11302D08D01FF91EF919F918F912F910F900FBE00
S11302E00F901F9018951F920F920FB60F92112422
S11302F08F939F93EF93FF9390919101809190013D
S1130300981769F0E0919001EF5FEF71E09390012D
S1130310F0E0EE54FE4F80818093CE0005C08091C2
S1130320C9008F7D8093C900FF91EF919F918F91B8
S11303300F900FBE0F901F9018951092910110927C
S1130340900110928F0110928E0197FF04C022E059
S11303502093C8009F779093CD008093CC0088E9C8
S11303608093C90086E08093CA000895909191011A
S11303709F5F9F71209190019217E1F3E92FF0E0C4
S1130380EE54FE4F8083909391018091C900806266
S11303908093C9000895CF93DF93EC01FC0170961C
S11303A08BE0DF011D928A95E9F782E08C838987CF
S11303B083E08E8761E0CE0101967DD2882361F0CF
S11303C061E0CE01069677D2882331F061E0CE0158
S11303D00B96DF91CF916FC280E0DF91CF910895AA
S11303E0CF93C62F2091E4012430F1F4FC01448919
S11303F0558966897789452B462B472BA9F081813E
S11304008F708093E9008091E80085FF04C0C09359
S1130410F10080E00AC08091E8008E778093E800C4
S1130420A8D28823A1F301C082E0CF910895FB01F3
S1130430682F84859585D4DF21E030E0811102C0E6
S113044020E030E088279927821B930B08952091A0
S1130450E401243041F5FC01448955896689778992
S1130460452B462B472BF9F081818F708093E9004F
S11304702091F3008091F20090E0922B892B89F077
S11304809091E8008091E8008E778093E80095FDD4
S113049008C06FD2811108C08091E8008E778093E4
S11304A0E80080E0089582E008952091E40124307A
S11304B089F4FC014489558966897789452B462B43
S11304C0472B41F021812F702093E9002091E8000F
S11304D020FDBDCF08952091E401243019F08FEF61
S11304E09FEF0895FC014489558966897789452BD6
S11304F0462B472BA1F386818F708093E90080916E
S1130500E80082FFECCF2091F3008091F20090E0AC
S1130510922B892B21F02091F10030E002C02FEFC3
S11305203FEF4091F3008091F20090E0942B892BEF
S113053029F48091E8008B778093E800C90108953D
S1130540FC0184859585C7DF97FF02C08EEF9FEF7E
S11305500895FB012EE0DB011D922A95E9F723E0C3
S1130560238327E132E03187208720EA32E0338792
S113057022879587848708950895CF93DF93EC01AC
S11305808091E80083FFA6C0888190E02091E90172
S11305903091EA012817390709F09CC08091E601DF
S11305A0813261F020F4803209F43EC093C082327B
S11305B009F46CC0833209F47DC08CC08091E501DC
S11305C0813A09F087C08091E800877F8093E80032
S11305D08091E80080FFFCCF4C895D896E897F891A
S11305E04093F100BB27A72F962F852F8093F1000E
S11305F0CB01AA27BB278093F100472F55276627F5
S113060077274093F100888D8093F100898D809342
S1130610F1008A8D8093F1008091E8008E778093B9
S1130620E800DF91CF9184C18091E501813209F026
S113063051C08091E800877F8093E8008091E800B2
S113064082FD05C08091E4018111F8CF43C030914F
S1130650F1002091F1009091F1008091F1003C8B28
S11306602D8B9E8B8F8B8091F100888F8091F10070
S1130670898F8091F1008A8F8091E8008B77809335
S1130680E80056D1CE01DF91CF9176CF8091E5017C
S1130690813201F58091E800877F8093E80048D19A
S11306A08091E7019091E801998B888BCE01DF91CD
S11306B0CF9162CF8091E501813261F48091E800AD
S11306C0877F8093E80034D16091E701CE01DF9108
S11306D0CF9152CFDF91CF9108952091EB013091CA
S11306E0EC012617370748F06115710539F420919C
S11306F0E8002E772093E80001C0B901FC0120E056
S113070061157105A9F18091E4018823E9F185302F
S1130710E9F18091E80083FD35C08091E80082FF13
S113072006C08091E80082FF26C080E00895809191
S1130730E80080FFE5CF2091F3008091F20090E083
S1130740922B6115710551F08830910538F421918F
S11307502093F100615071090196F3CF21E00897CD
S113076009F020E08091E8008E778093E800C8CFFC
S11307702111C9CFD6CF8091E401882329F0853097
S113078081F604C081E0089582E0089583E008952D
S11307902091EB013091EC012617370748F06115E1
S11307A0710539F42091E8002E772093E80001C008
S11307B0B901FC0120E061157105C1F18091E401EA
S11307C0882309F43FC0853009F43EC08091E800D5
S11307D083FD36C08091E80082FF06C08091E80066
S11307E082FF27C080E008958091E80080FFE3CF76
S11307F02091F3008091F20090E0922B6115710535
S113080059F08830910540F424912093F1003196F9
S1130810615071090196F2CF21E0089709F020E0B8
S11308208091E8008E778093E800C5CF2111C6CF70
S1130830D5CF8091E401882329F0853079F604C06E
S113084081E0089582E0089583E00895982F973019
S113085058F59093E900981739F07091EC002091C5
S1130860ED005091F00003C0242F762F50E021FFBB
S113087019C03091EB003E7F3093EB003091ED00D6
S11308803D7F3093ED003091EB0031603093EB000D
S11308907093EC002093ED005093F0002091EE0053
S11308A027FF07C09F5FD3CF8F708093E90081E05B
S11308B0089580E008950F931F93CF93DF93062F3D
S11308C0EC0110E0101771F19881992341F12C810A
S11308D0E981FA817B81892F8F70873010F080E065
S11308E022C0223010F056E001C052E028E030E08F
S11308F040E02E173F0720F44F5F220F331FF9CF3C
S11309004295407F452B692F661F6627661F90E43A
S1130910799F90011124622B99DF882301F31F5FD3
S11309202596D0CF81E0DF91CF911F910F9108954B
S11309308091E50187FD05C08091E80080FF0EC02D
S113094012C08091E80082FD05C08091E40181110C
S1130950F8CF08958091E8008B7708C08091E40176
S11309608111EACF08958091E8008E778093E800A2
S113097008958091E4009091E50045E62091EC0013
S113098020FF21C02091E80020FD21C02091E40136
S1130990222389F0253089F02091EB0025FD0FC03A
S11309A02091E4003091E5002817390739F34150CC
S11309B041F0C901E3CF82E0089583E0089581E026
S11309C0089584E008952091E80022FFDFCF80E0BD
S11309D008950F931F93CF93DF934BD052D0C8ED5C
S11309E0D0E088818F778883888180688883888134
S11309F08F7D888319BC1092E4011092E00110925B
S1130A00E2011092E10100EE10E0F80180818B7F99
S1130A10808388818160888342E060E080E016DF23
S1130A20E1EEF0E080818E7F8083E2EEF0E0808171
S1130A3081608083808188608083F80180818E7FDB
S1130A408083888180618883DF91CF911F910F918A
S1130A500895E8EDF0E080818F7E8083E7EDF0E09B
S1130A6080818160808384E082BF81E08093E301A0
S1130A70B0CFE8EDF0E080818E7F80831092E200B9
S1130A8008951092DA001092E10008951F920F92D7
S1130A900FB60F9211242F933F934F935F936F934D
S1130AA07F938F939F93AF93BF93EF93FF93809123
S1130AB0E10082FF0AC08091E20082FF06C08091BB
S1130AC0E1008B7F8093E1002CD28091DA0080FFDB
S1130AD01DC08091D80080FF19C08091DA008E7FFC
S1130AE08093DA008091D90080FF0CC080E189BD39
S1130AF082E189BD09B400FEFDCF81E08093E40169
S1130B0021D404C019BC1092E4011ED48091E100E8
S1130B1080FF18C08091E20080FF14C08091E20041
S1130B208E7F8093E2008091E20080618093E200F6
S1130B308091D80080628093D80019BC85E08093AE
S1130B40E401EFD18091E10084FF2FC08091E200A5
S1130B5084FF2BC080E189BD82E189BD09B400FE18
S1130B60FDCF8091D8008F7D8093D8008091E100E3
S1130B708F7E8093E1008091E2008F7E8093E2007B
S1130B808091E20081608093E2008091E0018823FB
S1130B9011F084E007C08091E30087FF02C083E086
S1130BA001C081E08093E401BCD18091E10083FF26
S1130BB027C08091E20083FF23C08091E100877FFA
S1130BC08093E10082E08093E4011092E00180913F
S1130BD0E1008E7F8093E1008091E2008E7F80931C
S1130BE0E2008091E20080618093E20042E060E0F4
S1130BF080E02CDE8091F00088608093F00091D139
S1130C00FF91EF91BF91AF919F918F917F916F91E0
S1130C105F914F913F912F910F900FBE0F901F90B6
S1130C2018951F920F920FB60F9211242F933F9392
S1130C304F935F936F937F938F939F93AF93BF93E0
S1130C40CF93EF93FF93C091E900CF708091EC00B4
S1130C501092E9008091F000877F8093F0007894EF
S1130C601BD01092E9008091F00088608093F0001E
S1130C70C093E900FF91EF91CF91BF91AF919F9104
S1130C808F917F916F915F914F913F912F910F9031
S1130C900FBE0F901F9018951F93CF93DF93CDB77E
S1130CA0DEB7AA970FB6F894DEBF0FBECDBFE5EE50
S1130CB0F1E08091F100819321E0ED3EF207C9F764
S1130CC04ED38091E80083FF14C12091E501309157
S1130CD0E601832F90E08A30910508F00AC1FC01F7
S1130CE0EA5AFF4FC6C3203881F0223809F001C107
S1130CF08091E9018F708093E9008091EB0085FB7E
S1130D00882780F91092E90006C08091E101909152
S1130D10E201911182609091E800977F9093E8003E
S1130D208093F1001092F100C1C0822F8D7F09F0F1
S1130D30E0C0222319F0223061F0DBC08091E7018A
S1130D40813009F0D6C0333009F080E08093E201AD
S1130D5028C08091E701811124C02091E9012F70FE
S1130D6009F4C7C02093E9008091EB0080FF19C00B
S1130D708091EB00333011F4806211C08061809364
S1130D80EB0081E090E0022E01C0880F0A94EAF79C
S1130D908093EA001092EA008091EB0088608093CF
S1130DA0EB001092E9008091E800877F82C0211156
S1130DB0A0C01091E7011F778091E3008078812B18
S1130DC08093E3008091E800877F8093E800B0DDA2
S1130DD08091E80080FFFCCF8091E30080688093DD
S1130DE0E300112311F083E001C082E08093E40169
S1130DF080C02058223008F07CC08091E701909197
S1130E00E8018C3D23E0920771F583E08A838AE24E
S1130E1089834FB7F894DE01139620E03EE051E257
S1130E20E32FF0E050935700E49120FF03C0E295D4
S1130E30EF703F5FEF708E2F90E0EA3010F0C796AE
S1130E4001C0C0968D939D932F5F243149F74FBF06
S1130E508091E800877F8093E8006AE270E0CE0129
S1130E6001963BDC12C0AE014F5F5F4F6091E90118
S1130E70AED9009709F43DC02091E800277F209364
S1130E80E800BC0189819A8183DC8091E8008B773A
S1130E908093E8002EC0203861F58091E800877FB8
S1130EA08093E8008091E0018093F1008091E80054
S1130EB08E778093E8003CDD1CC021111AC090910C
S1130EC0E7019230B0F48091E800877F8093E800D6
S1130ED09093E0012DDD8091E001811104C08091A7
S1130EE0E30087FF02C084E001C081E08093E40155
S1130EF02DD28091E80083FF0AC08091E800877FAB
S1130F008093E8008091EB0080628093EB00AA96C6
S1130F100FB6F894DEBF0FBECDBFDF91CF911F9106
S1130F2008950895CF938091E4018823A9F08091D6
S1130F30E9008F709091EC0090FF02C090E801C02E
S1130F4090E0C92FC82B1092E9008091E80083FD3E
S1130F50A3DECF70C093E900CF9108951092900062
S1130F6080E880939100109292000895E1E9F0E006
S1130F708081806480830895E1E9F0E080811082BB
S1130F800895109295001092940088B3816288BBF2
S1130F90E1E9F0E08081108280818360808308959C
S1130FA0E1E9F0E08081108288B3816288BB089512
S1130FB08091960090919700089525B1982F91788B
S1130FC090952168922395B99BB180729F7D892B5E
S1130FD08BB9089589988FE39CE90197F1F700C0D4
S1130FE00000899A089587E690E0A7C984B7877FAF
S1130FF084BF88E10FB6F89480936000109260007B
S11310000FBE90E080E80FB6F8948093610090934F
S113101061000FBEE8DFA2DF84B1816884B985B1C5
S1131020816885B9559A5D9814DD84B1816F84B95E
S11310303E9A3F988AB1846E8AB950986A9880B370
S1131040826F80BB8098899A2C985F985E9AF1C8C9
S1131050CF92DF92EF92FF921F93CF93DF93CDB79E
S1131060DEB72A970FB6F894DEBF0FBECDBF5E9AE7
S11310702C985F9A2FEF86E791E0215080409040B2
S1131080E1F700C000005F985E982C9A2FEF83EF81
S113109091E0215080409040E1F700C00000479B60
S11310A004C0469A69DF11E003C046985FDF10E090
S11310B02FEF83EF91E0215080409040E1F700C092
S11310C000002C985EDF88B38172E9F3C59B15C0DC
S11310D06FDF6C01BC0180E090E02AE0AE014F5F5D
S11310E05F4FF0D162ED71E0CE01019625D262ED41
S11310F071E08DE291E020D209C0C09903C0C12CF7
S1131100D12C04C090E1C92E97E2D92E49DFE12CFD
S1131110F12C82E0CC0CDD1CEE1CFF1C8A95D1F76F
S11311202AE0AE014F5F5F4FC701B601CBD162ED3C
S113113071E0CE01019600D262ED71E082E391E0AC
S1131140FBD1AEECB4E0A7019601A8D120E838E3C6
S113115041E050E06CD169017A012AE0AE014F5FB1
S11311605F4FC701B601AED162ED71E0CE010196C9
S1131170E3D162ED71E086E391E0DED14AE0BE01A5
S11311806F5F7F4FC60194D162ED71E0CE0101968D
S1131190D3D162ED71E08BE391E0CED1112329F03C
S11311A0882799278C199D0901C0C6012A960FB674
S11311B0F894DEBF0FBECDBFDF91CF911F91FF909A
S11311C0EF90DF90CF9008950F931F93CF93DF9309
S11311D01F92CDB7DEB78C01862F4983C7D84981CA
S11311E0842FC4D8812F82958F70C0D8812F8F709F
S11311F0BDD8C80124E0959587952A95E1F78F70AD
S1131200B5D8802F8F700F90DF91CF911F910F91E0
S1131210ADC8CF93C82F85EFA9D886EFA7D88C2F58
S113122082958F70A3D88C2F8F70CF919FC8CF9247
S1131230DF92EF92FF92CF93DF93CDB7DEB72A9779
S11312400FB6F894DEBF0FBECDBF80E00E94C4008D
S11312509C01AAEBB3E113D16B017C013AE0F69453
S1131260E794D794C7943A95D1F748EF67EFC6014E
S1131270ABDF2AE0AE014F5F5F4FC701B60122D159
S113128062ED71E0CE01019657D162ED71E083E425
S113129091E052D12A960FB6F894DEBF0FBECDBFAF
S11312A0DF91CF91FF90EF90DF90CF900895CF938F
S11312B0DF93CDB7DEB72A970FB6F894DEBF0FBE23
S11312C0CDBF94DE62ED71E082E091E042D981E02D
S11312D074DE789462ED71E08EE491E02DD1A7DFA5
S11312E08091010196DF809101014AE0BE016F5FA8
S11312F07F4F90E0DDD062ED71E0CE0101961CD10C
S113130062ED71E087E791E017D1A2DE8C0142EF34
S113131060EF5ADF4AE0BE016F5F7F4FC801C8D05B
S113132062ED71E0CE01019607D162ED71E085E8CE
S113133091E002D182E091E0CED882E091E0B5D88C
S1131340F1DDCDCF80EA39CE81E037CE82E091E085
S113135022D8882311F080E801C081E22ECE82E0F9
S113136091E00BC91F920F920FB60F9211242F9385
S11313703F934F935F936F937F938F939F93AF9319
S1131380BF93CF93EF93FF93C09101010E94260175
S11313908C0F80930101809101018B3F18F08FEF36
S11313A0809301018091010115DEFF91EF91CF91AE
S11313B0BF91AF919F918F917F916F915F914F9169
S11313C03F912F910F900FBE0F901F9018951F9271
S11313D00F920FB60F9211242F933F934F935F9365
S11313E06F937F938F939F93AF93BF93CF93EF9319
S11313F0FF93C09101010E9426018C0F809301018B
S11314008091010180910101E5DDFF91EF91CF9180
S1131410BF91AF919F918F917F916F915F914F9108
S11314203F912F910F900FBE0F901F901895A1E23E
S11314301A2EAA1BBB1BFD010DC0AA1FBB1FEE1F4A
S1131440FF1FA217B307E407F50720F0A21BB30B95
S1131450E40BF50B661F771F881F991F1A9469F711
S113146060957095809590959B01AC01BD01CF016D
S11314700895EE0FFF1F0590F491E02D0994A29FAB
S1131480B001B39FC001A39F700D811D1124911D54
S1131490B29F700D811D1124911D0895F0DFA59F49
S11314A0900DB49F900DA49F800D911D112408955B
S11314B0BB274A3031F4992322F4BDE290958195FB
S11314C09F4F22C0BB27FA01A62F62177105810521
S11314D09105330B30FB66F0AA27660F771F881F30
S11314E0991FAA1FA21710F0A21B63953850A9F7E1
S11314F0A05DAA3308F0A95DA19336F7B111B193A9
S11315001082CA011AC2BB27FB015527AA27880FDC
S1131510991FAA1FA41710F0A41B83955051B9F763
S1131520A05DAA3308F0A95DA193009779F7B111E2
S1131530B1931192CB0101C2EF92FF920F931F93CB
S1131540CF93DF938B01DB0113962C9121FF16C0FF
S1131550EC01E12CF12C8991882371F0D8011896C3
S1131560ED91FC911997B8010995892BA1F3EE240B
S1131570EA94FF24FA94EFCFC70102C08FEF9FEFE4
S1131580CDB7DEB7E6E0A1C2ACE0B0E0E9ECFAE04A
S113159074C27C016B018A01FC011782168283816B
S11315A081FFB0C1CE0101964C01F7019381F60190
S11315B093FD859193FF81916F01882309F49EC166
S11315C0853239F493FD859193FF81916F018532C2
S11315D021F4B70190E0C1D1E8CF512C312C20E0A7
S11315E02032A0F48B3269F030F4803259F0833227
S11315F069F420612CC08D3239F0803339F42160D4
S113160026C02260246023C0286021C027FD27C093
S113161030ED380F3A3078F426FF06C0FAE05F9ECA
S1131620300D1124532E13C08AE0389E300D11243E
S1131630332E20620CC08E3221F426FD5FC120645B
S113164006C08C3611F4206802C0883641F4F601D5
S113165093FD859193FF81916F018111C1CF982FE3
S11316609F7D9554933028F40C5F1F4FFFE3F9835B
S11316700DC0833631F0833771F0833509F057C0DC
S113168021C0F801808189830E5F1F4F4424439455
S1131690512C540114C03801F2E06F0E711CF80192
S11316A0A080B18026FF03C0652D70E002C06FEFFB
S11316B07FEFC5012C8736D12C0183012C852F7730
S11316C0222E16C03801F2E06F0E711CF801A080C2
S11316D0B18026FF03C0652D70E002C06FEF7FEF7D
S11316E0C5012C8714D12C012C852068222E83015E
S11316F023FC19C0832D90E048165906A0F4B701C5
S113170080E290E02AD13A94F5CFF50127FC859147
S113171027FE81915F01B70190E01FD131103A9407
S1131720F1E04F1A51084114510479F7DEC08436B0
S113173011F0893631F5F80127FF07C06081718106
S1131740828193810C5F1F4F08C06081718188275B
S113175077FD8095982F0E5F1F4F2F76B22E97FF3F
S113176009C090958095709561957F4F8F4F9F4FDD
S11317702068B22E2AE030E0A40121D1A82EA818B6
S113178043C0853729F42F7EB22E2AE030E025C0ED
S1131790F22FF97FBF2E8F36C1F018F4883579F017
S11317A0ADC0803719F0883721F0A8C02F2F2061F1
S11317B0B22EB4FE0DC08B2D8460B82E09C024FF58
S11317C00AC09F2F9660B92E06C028E030E005C0FD
S11317D020E130E002C020E132E0F801B7FE07C0AA
S11317E060817181828193810C5F1F4F06C060818B
S11317F0718180E090E00E5F1F4FA401E0D0A82E1D
S1131800A818FB2DFF77BF2EB6FE0BC02B2D2E7F05
S1131810A51450F4B4FE0AC0B2FC08C02B2D2E7ED1
S113182005C07A2C2B2D03C07A2C01C0752C24FF03
S11318300DC0FE01EA0DF11D8081803311F4297E73
S113184009C022FF06C07394739404C0822F867863
S113185009F0739423FD12C020FF06C05A2C7314A0
S113186018F4530C5718732C731460F4B70180E206
S113187090E02C8772D073942C85F6CF731410F4F7
S1131880371801C0312C24FF11C0B70180E390E068
S11318902C8763D02C8522FF16C021FF03C088E566
S11318A090E002C088E790E0B7010CC0822F8678F0
S11318B051F021FD02C080E201C08BE227FD8DE2E0
S11318C0B70190E04AD0A51430F4B70180E390E06A
S11318D044D05A94F8CFAA94F401EA0DF11D808102
S11318E0B70190E03AD0A110F6CF332009F45DCED1
S11318F0B70180E290E031D03A94F7CFF7018681C6
S1131900978102C08FEF9FEF2C96E2E1D2C0FC01D9
S11319100590615070400110D8F7809590958E0F16
S11319209F1F0895FC016150704001900110D8F789
S1131930809590958E0F9F1F0895DC01FC01672F01
S113194071917723E1F7329704C07C916D93708392
S11319506291AE17BF07C8F308950F931F93CF93F7
S1131960DF93182F092FEB018B8181FD03C08FEFCB
S11319709FEF20C082FF10C04E815F812C813D818A
S1131980421753077CF4E881F9819F012F5F3F4F91
S113199039832883108306C0E885F985812F09954A
S11319A0892B29F72E813F812F5F3F4F3F832E8361
S11319B0812F902FDF91CF911F910F910895FA01FC
S11319C0AA27283051F1203181F1E8946F936E7F7A
S11319D06E5F7F4F8F4F9F4FAF4FB1E03ED0B4E06B
S11319E03CD0670F781F891F9A1FA11D680F791FAC
S11319F08A1F911DA11D6A0F711D811D911DA11DBD
S1131A0020D009F468943F912AE0269F11243019CC
S1131A10305D3193DEF6CF010895462F4770405D67
S1131A204193B3E00FD0C9F7F6CF462F4F70405D16
S1131A304A3318F0495D31FD4052419302D0A9F771
S1131A40EACFB4E0A6959795879577956795BA956B
S1131A50C9F700976105710508959B01AC010A2E31
S1131A6006945795479537952795BA95C9F7620F08
S1131A70731F841F951FA01D08952F923F924F92AC
S1131A805F926F927F928F929F92AF92BF92CF920A
S1131A90DF92EF92FF920F931F93CF93DF93CDB713
S1131AA0DEB7CA1BDB0B0FB6F894DEBF0FBECDBF8B
S1131AB009942A88398848885F846E847D848C845C
S1131AC09B84AA84B984C884DF80EE80FD800C8165
S1131AD01B81AA81B981CE0FD11D0FB6F894DEBF48
S10F1AE00FBECDBFED010895F894FFCFB8
S1131AEC0380008310000001041000000182080030
S1131AFC0001000000000000000000000000FF01D5
S1131B0C00010000FFFF0000010001FF0063617091
S1131B1C0A0054320A005432320A00726573756C2E
S1131B2C740A00206D5620426174740D0A005765C6
S1131B3C6C636F6D6520746F204F757220447561F2
S1131B4C6C20536C6F706520436F6E74726F6C6C89
S1131B5C657221200D0A00204261636B6C69676811
S10F1B6C74200D0A006D56200D0A0000C4
S9030000FC
