S0140000566F6C746D657465722056312E73726563A7
S1130000A5C00000BFC00000BDC00000BBC0000010
S1130010B9C00000B7C00000B5C00000B3C0000004
S1130020B1C00000AFC0000026C50000EFC500004D
S1130030A9C00000A7C00000A5C00000A3C0000024
S1130040A1C000009FC000009DC000009BC0000034
S113005099C0000097C0000095C0000093C0000044
S113006091C000008FC000008DC000008BC0000054
S113007089C0000087C0000085C0000083C0000064
S113008081C000007FC000007DC000007BC0000074
S113009079C0000077C0000075C0000073C0000084
S11300A071C000006FC000006DC0000068068A06C1
S11300B06E078A066E07CC06EE066E0740075207E7
S11300C01C034C005500460041002000430044003E
S11300D043002000440065006D006F000000180319
S11300E04400650061006E002000430061006D0063
S11300F065007200610000000403090409023E0067
S1130100020100C0320904000001020201000524BA
S113011000100104240206052406000107058203D9
S11301200800FF09040100020A0000000705040298
S113013010000507058302100005120110010200DA
S11301400008EB03442001000102DC0111241FBE5E
S1130150CFEFDAE0DEBFCDBF11E0A0E0B1E0E8EA26
S1130160F1E102C005900D92AC35B107D9F721E059
S1130170ACE5B1E001C01D92A837B207E1F732D770
S11301800C94D2083DCF292F33272230310559F062
S11301902330310569F021303105F9F482E190E032
S11301A02AE331E01EC08EE390E02CEF30E019C06A
S11301B099278130910541F08230910541F0892BD6
S11301C061F4E8EFF0E005C0EEEDF0E002C0E0EC31
S11301D0F0E0849190E09F0104C080E090E020E092
S11301E030E0FA0131832083089576980895769A51
S11301F00895CF93DF93C82FD62F662311F05E9A0C
S113020001C05E98C7FF02C02C9A01C02C98C6FF9B
S113021002C02D9A01C02D98C5FF02C02E9A01C0BC
S11302202E98C4FF02C02F9A01C02F9800C0DFDFB0
S113023082E08A95F1F700C0D8DFC3FF02C02C9A90
S113024001C02C98C2FF02C02D9A01C02D98C1FF95
S113025002C02E9A01C02E98C0FF02C02F9A01C07E
S11302602F9800C0C4DF92E09A95F1F700C0BDDF7B
S11302702C9A2D9A2E9A2F9AD11108C0C43030F49A
S11302808FE999E10197F1F700C003C095ED9A95C4
S1130290F1F70000DF91CF91089560E0AACF81E0EB
S11302A0FCCF61E0A6CFCF93DF93EC018991882343
S11302B011F0F7DFFBCFDF91CF9108956E9A569A34
S11302C0249A259A269A279A90DF5E982C9A2D9A3A
S11302D02E9A2F9A8FE59AEE0197F1F700C000004D
S11302E02C982D9800C083DF92E09A95F1F700C016
S11302F07CDF8FE090E40197F1F700C0000077DF26
S113030092E09A95F1F700C070DF8FE891E00197D1
S1130310F1F700C000006BDF92E09A95F1F700C09E
S113032064DF85ED8A95F1F700002F9800C05FDF48
S113033092E09A95F1F700C058DF85ED8A95F1F7C0
S113034000002F9800C053DF92E09A95F1F700C0A7
S11303504CDF82E08A95F1F700C02C9A00C047DF99
S113036092E09A95F1F700C040DF85ED8A95F1F7A8
S1130370000088E092DF93DF86E08FDF8CE08DCF92
S1130380CF93DF93EC01FC0170968BE0DF011D92AB
S11303908A95E9F782E08C83898783E08E8761E020
S11303A0CE0101967DD2882361F061E0CE010696EC
S11303B077D2882331F061E0CE010B96DF91CF91A3
S11303C06FC280E0DF91CF910895CF93C62F209123
S11303D06E012430F1F4FC014489558966897789DA
S11303E0452B462B472BA9F081818F708093E90020
S11303F08091E80085FF04C0C093F10080E00AC04A
S11304008091E8008E778093E800A8D28823A1F336
S113041001C082E0CF910895FB01682F8485958502
S1130420D4DF21E030E0811102C020E030E08827F1
S11304309927821B930B089520916E01243041F576
S1130440FC014489558966897789452B462B472BBE
S1130450F9F081818F708093E9002091F3008091FD
S1130460F20090E0922B892B89F09091E800809122
S1130470E8008E778093E80095FD08C06FD2811163
S113048008C08091E8008E778093E80080E00895AA
S113049082E0089520916E01243089F4FC0144899E
S11304A0558966897789452B462B472B41F0218155
S11304B02F702093E9002091E80020FDBDCF08951E
S11304C020916E01243019F08FEF9FEF0895FC0105
S11304D04489558966897789452B462B472BA1F397
S11304E086818F708093E9008091E80082FFECCFD1
S11304F02091F3008091F20090E0922B892B21F05F
S11305002091F10030E002C02FEF3FEF4091F30063
S11305108091F20090E0942B892B29F48091E800DB
S11305208B778093E800C9010895FC018485958543
S1130530C7DF97FF02C08EEF9FEF0895FB012EE007
S1130540DB011D922A95E9F723E023832CE032E0B6
S11305503187208725E932E033872287958784878E
S113056008950895CF93DF93EC018091E80083FF11
S1130570A6C0888190E020917301309174012817FE
S1130580390709F09CC080917001813261F020F438
S1130590803209F43EC093C0823209F46CC08332C5
S11305A009F47DC08CC080916F01813A09F087C045
S11305B08091E800877F8093E8008091E80080FFC5
S11305C0FCCF4C895D896E897F894093F100BB27FC
S11305D0A72F962F852F8093F100CB01AA27BB2745
S11305E08093F100472F5527662777274093F10022
S11305F0888D8093F100898D8093F1008A8D80939A
S1130600F1008091E8008E778093E800DF91CF912C
S113061084C180916F01813209F051C08091E8005A
S1130620877F8093E8008091E80082FD05C0809177
S11306306E018111F8CF43C03091F1002091F10097
S11306409091F1008091F1003C8B2D8B9E8B8F8BD0
S11306508091F100888F8091F100898F8091F10061
S11306608A8F8091E8008B778093E80056D1CE0181
S1130670DF91CF9176CF80916F01813201F5809126
S1130680E800877F8093E80048D1809171019091C0
S11306907201998B888BCE01DF91CF9162CF8091CB
S11306A06F01813261F48091E800877F8093E800D4
S11306B034D160917101CE01DF91CF9152CFDF919E
S11306C0CF9108952091750130917601261737074F
S11306D048F06115710539F42091E8002E772093D4
S11306E0E80001C0B901FC0120E061157105A9F120
S11306F080916E018823E9F18530E9F18091E80069
S113070083FD35C08091E80082FF06C08091E80037
S113071082FF26C080E008958091E80080FFE5CF45
S11307202091F3008091F20090E0922B6115710505
S113073051F08830910538F421912093F1006150F3
S113074071090196F3CF21E0089709F020E0809128
S1130750E8008E778093E800C8CF2111C9CFD6CFA7
S113076080916E01882329F0853081F604C081E0F0
S1130770089582E0089583E00895209175013091F1
S113078076012617370748F06115710539F4209171
S1130790E8002E772093E80001C0B901FC0120E0B5
S11307A061157105C1F180916E01882309F43FC080
S11307B0853009F43EC08091E80083FD36C0809105
S11307C0E80082FF06C08091E80082FF27C080E035
S11307D008958091E80080FFE3CF2091F300809199
S11307E0F20090E0922B6115710559F08830910563
S11307F040F424912093F1003196615071090196DF
S1130800F2CF21E0089709F020E08091E8008E778C
S11308108093E800C5CF2111C6CFD5CF80916E015A
S1130820882329F0853079F604C081E0089582E0B8
S1130830089583E00895982F973058F59093E90030
S1130840981739F07091EC002091ED005091F00070
S113085003C0242F762F50E021FF19C03091EB0004
S11308603E7F3093EB003091ED003D7F3093ED00FF
S11308703091EB0031603093EB007093EC002093E7
S1130880ED005093F0002091EE0027FF07C09F5F1A
S1130890D3CF8F708093E90081E0089580E00895BC
S11308A00F931F93CF93DF93062FEC0110E01017E3
S11308B071F19881992341F12C81E981FA817B813D
S11308C0892F8F70873010F080E022C0223010F022
S11308D056E001C052E028E030E040E02E173F0728
S11308E020F44F5F220F331FF9CF4295407F452BF1
S11308F0692F661F6627661F90E4799F9001112473
S1130900622B99DF882301F31F5F2596D0CF81E006
S1130910DF91CF911F910F91089580916F0187FD11
S113092005C08091E80080FF0EC012C08091E800ED
S113093082FD05C080916E018111F8CF08958091E8
S1130940E8008B7708C080916E018111EACF089589
S11309508091E8008E778093E80008958091E40008
S11309609091E50045E62091EC0020FF21C0209104
S1130970E80020FD21C020916E01222389F025305A
S113098089F02091EB0025FD0FC02091E400309107
S1130990E5002817390739F3415041F0C901E3CF85
S11309A082E0089583E0089581E0089584E0089545
S11309B02091E80022FFDFCF80E008950F931F937A
S11309C0CF93DF934BD052D0C8EDD0E088818F779E
S11309D0888388818068888388818F7D888319BC17
S11309E010926E0110926A0110926C0110926B01C8
S11309F000EE10E0F80180818B7F80838881816024
S1130A00888342E060E080E016DFE1EEF0E0808180
S1130A108E7F8083E2EEF0E080818160808380813C
S1130A2088608083F80180818E7F808388818061E3
S1130A308883DF91CF911F910F910895E8EDF0E045
S1130A4080818F7E8083E7EDF0E080818160808308
S1130A5084E082BF81E080936D01B0CFE8EDF0E0E7
S1130A6080818E7F80831092E20008951092DA00D4
S1130A701092E10008951F920F920FB60F92112465
S1130A802F933F934F935F936F937F938F939F9392
S1130A90AF93BF93EF93FF938091E10082FF0AC06D
S1130AA08091E20082FF06C08091E1008B7F8093F9
S1130AB0E1002CD28091DA0080FF1DC08091D80023
S1130AC080FF19C08091DA008E7F8093DA008091D4
S1130AD0D90080FF0CC080E189BD82E189BD09B4E1
S1130AE000FEFDCF81E080936E01C6D204C019BC24
S1130AF010926E01C3D28091E10080FF18C08091F2
S1130B00E20080FF14C08091E2008E7F8093E200B7
S1130B108091E20080618093E2008091D80080623D
S1130B208093D80019BC85E080936E01EFD1809149
S1130B30E10084FF2FC08091E20084FF2BC080E19C
S1130B4089BD82E189BD09B400FEFDCF8091D80042
S1130B508F7D8093D8008091E1008F7E8093E100A7
S1130B608091E2008F7E8093E2008091E2008160B8
S1130B708093E20080916A01882311F084E007C029
S1130B808091E30087FF02C083E001C081E080938D
S1130B906E01BCD18091E10083FF27C08091E20007
S1130BA083FF23C08091E100877F8093E10082E08E
S1130BB080936E0110926A018091E1008E7F809390
S1130BC0E1008091E2008E7F8093E2008091E20058
S1130BD080618093E20042E060E080E02CDE80915E
S1130BE0F00088608093F00091D1FF91EF91BF9164
S1130BF0AF919F918F917F916F915F914F913F91B1
S1130C002F910F900FBE0F901F9018951F920F9267
S1130C100FB60F9211242F933F934F935F936F93CB
S1130C207F938F939F93AF93BF93CF93EF93FF9350
S1130C30C091E900CF708091EC001092E90080919E
S1130C40F000877F8093F00078941BD01092E90025
S1130C508091F00088608093F000C093E900FF91D8
S1130C60EF91CF91BF91AF919F918F917F916F91B0
S1130C705F914F913F912F910F900FBE0F901F9056
S1130C8018951F93CF93DF93CDB7DEB7AA970FB60E
S1130C90F894DEBF0FBECDBFEFE6F1E08091F10026
S1130CA0819321E0E737F207C9F7F3D18091E80097
S1130CB083FF14C120916F0130917001832F90E064
S1130CC08A30910508F00AC1FC01EA5AFF4FE4C1D9
S1130CD0203881F0223809F001C1809173018F70AE
S1130CE08093E9008091EB0085FB882780F91092BE
S1130CF0E90006C080916B0190916C0191118260B2
S1130D009091E800977F9093E8008093F10010920F
S1130D10F100C1C0822F8D7F09F0E0C0222319F0B9
S1130D20223061F0DBC080917101813009F0D6C0BE
S1130D30333009F080E080936C0128C08091710108
S1130D40811124C0209173012F7009F4C7C020932E
S1130D50E9008091EB0080FF19C08091EB003330F3
S1130D6011F4806211C080618093EB0081E090E017
S1130D70022E01C0880F0A94EAF78093EA001092C9
S1130D80EA008091EB0088608093EB001092E90008
S1130D908091E800877F82C02111A0C01091710169
S1130DA01F778091E3008078812B8093E30080910A
S1130DB0E800877F8093E800B0DD8091E80080FF41
S1130DC0FCCF8091E30080688093E300112311F04D
S1130DD083E001C082E080936E0180C020582230FD
S1130DE008F07CC080917101909172018C3D23E0E8
S1130DF0920771F583E08A838AE289834FB7F89476
S1130E00DE01139620E03EE051E2E32FF0E0509340
S1130E105700E49120FF03C0E295EF703F5FEF704D
S1130E208E2F90E0EA3010F0C79601C0C0968D93E3
S1130E309D932F5F243149F74FBF8091E800877F4E
S1130E408093E8006AE270E0CE0101963BDC12C0B8
S1130E50AE014F5F5F4F6091730195D9009709F41C
S1130E603DC02091E800277F2093E800BC018981E0
S1130E709A8183DC8091E8008B778093E8002EC010
S1130E80203861F58091E800877F8093E8008091A5
S1130E906A018093F1008091E8008E778093E800E6
S1130EA03CDD1CC021111AC0909171019230B0F444
S1130EB08091E800877F8093E80090936A012DDD9C
S1130EC080916A01811104C08091E30087FF02C010
S1130ED084E001C081E080936E01D2D08091E8006B
S1130EE083FF0AC08091E800877F8093E8008091A7
S1130EF0EB0080628093EB00AA960FB6F894DEBFF5
S1130F000FBECDBFDF91CF911F9108950895CF9368
S1130F1080916E018823A9F08091E9008F709091EF
S1130F20EC0090FF02C090E801C090E0C92FC82BEC
S1130F301092E9008091E80083FDA3DECF70C09396
S1130F40E900CF91089525B1982F91709095216073
S1130F50922395B92BB1982F907290952062922389
S1130F609BB998B180789F77892B88B9089584B705
S1130F70877F84BF88E10FB6F89480936000109255
S1130F8060000FBE90E080E80FB6F8948093610093
S1130F90909361000FBE209A289A559A5D9A3F9AC1
S1130FA047984CDD8BD92FEF81EE94E0215080409F
S1130FB09040E1F700C0000072D98BE191E073D951
S1130FC03E9A469A0895589A2FEF87EE93E021505F
S1130FD080409040E1F700C00000589A80E8809378
S1130FE077010895CF93DF93CDB7DEB727970FB678
S1130FF0F894DEBF0FBECDBFBADF6CE571E080E0D0
S113100091E09CDA81E09FDF78946CE571E088E2FE
S113101091E075D0DD24D39480E2E82E90E8F92E97
S1131020D3B8E9B8F6B80F5F1F4F2FEF83ED90E305
S1131030215080409040E1F700C0000030D981E5A4
S113104091E031D94AE050E0BE016F5F7F4FC801A3
S113105029D0CE01019627D9B6DF809377016CE5BC
S113106071E085E591E04BD080E091E029DA80E001
S113107091E010DA4CDFD4CF80EA65CF81E063CF12
S113108080E091E07DD9882311F080E201C081E8FD
S11310905ACF80E091E066CAEE0FFF1F0590F491ED
S11310A0E02D09944532510518F4423008F004C08B
S11310B0FB011082CB010895BB274A3031F49923F8
S11310C022F4BDE2909581959F4F01C0BB27FB019F
S11310D05527AA27880F991FAA1FA41710F0A41B2D
S11310E083955051B9F7A05DAA3308F0A95DA19387
S11310F0009779F7B111B1931192CB0128C0EF9207
S1131100FF920F931F93CF93DF938B01DB01139611
S11311102C9121FF16C0EC01E12CF12C899188233C
S113112071F0D8011896ED91FC911997B8010995C1
S1131130892BA1F3EE24EA94FF24FA94EFCFC7019C
S113114002C08FEF9FEFCDB7DEB7E6E01CC0DC0135
S1131150FC01672F71917723E1F7329704C07C91EA
S11311606D9370836291AE17BF07C8F308952A8800
S1131170398848885F846E847D848C849B84AA84A7
S1131180B984C884DF80EE80FD800C811B81AA8134
S1131190B981CE0FD11D0FB6F894DEBF0FBECDBFFF
S10B11A0ED010895F894FFCF5E
S11311A800831000000104100000018208000001FF
S11311B8000000000000000000000048656C6C6F2F
S11311C820576F726C64210057656C636F6D6520DE
S11311D8746F204F7572204475616C20536C6F7066
S11311E86520436F6E74726F6C6C657221200D0AF2
S10F11F800486920006D56200D0A00001C
S9030000FC
