S02B0000424F4F544C4F414445525F4C5546415F4344435F33324B425F344B425F333255345F41504F4C4C4F55
S11370000C9460380C9499380C9499380C949938F1
S11370100C9499380C9499380C9499380C949938A8
S11370200C9499380C9499380C947C3D0C949938B0
S11370300C9499380C9499380C9499380C94993888
S11370400C9499380C9499380C9499380C94993878
S11370500C94BF3B0C9499380C9499380C9499383F
S11370600C9499380C9499380C9499380C94993858
S11370700C9499380C9499380C9499380C94993848
S11370800C9499380C9499380C9499380C94993838
S11370900C9499380C9499380C9499380C94993828
S11370A00C9499380C9499380C949938593E763E3E
S11370B01F3F763E1F3FAB3ECD3E1F3FEF3E023F9C
S11370C011241FBECFEFDAE0DEBFCDBF04B603FE4E
S11370D019C08091A0019091A10182349C4D91F43A
S11370E084B7877F84BF88E10FB6F89480936000EB
S11370F0109260000FBE1092A1011092A001E0E076
S1137100F0E0099511E0A0E0B1E0ECEDFEE702C08B
S113711005900D92A239B107D9F721E0A2E9B1E0B7
S113712001C01D92A03AB207E1F70E941C390C94E9
S11371306C3F0C94003807B600FCFDCFF999FECFE4
S113714023E0FB0120935700E89507B600FCFDCF30
S113715081E180935700E895089507B600FCFDCFC0
S1137160F999FECF25E0FB0120935700E89507B677
S113717000FCFDCF81E180935700E895089507B6A0
S113718000FCFDCFF999FECF21E0FB010A01209319
S11371905700E8951124089521E2FC01209357003B
S11371A08491089529E0FC01209357008491089567
S11371B0E1E0F0E089E0809357008491089507B6F8
S11371C000FCFDCFF999FECF809599E0E1E0F0E075
S11371D0082E90935700E895089584E08093E90081
S11371E08091E80085FD0EC08091E8008B77809344
S11371F0E8008091E80082FDF3CF8EB38111F9CFCE
S113720080E008958091F100089593E09093E9005F
S11372109091E80095FF03C08093F1000895909148
S1137220E8009E779093E8009091E80090FDF4CFF9
S11372309EB39111F9CF0895CF93DF9300D01F929D
S1137240CDB7DEB784B7877F84BF88E10FB6F894E3
S113725080936000109260000FBE90E080E80FB64B
S1137260F89480936100909361000FBE11E015BF04
S113727082E085BF0E945E3D84B1816884B985B196
S1137280816885B9559A5D9810936F0083E0809367
S1137290810085B181688E7F85B95D987894A3E07B
S11372A07A2EB5E06B2E212C312C8091000188239D
S11372B009F44EC284E08093E9008091E80082FFE3
S11372C044C20E94ED38982F853419F410920001BD
S11372D008C088E8890F823010F0943531F40E9498
S11372E0ED388DE00E94053908C29035D1F39C3405
S11372F0C1F3943729F484E40E94053980E0F2CF85
S1137300913611F489E5EECF9134A1F40E94ED3861
S1137310082F0E94ED3890E0880F991F202F30E04D
S1137320322F2227330F822B932BAA2797FDA09568
S1137330BA2FB5C1903711F483E5D4CF933579F4DE
S113734078E0E72E71E0F72EF70181917F010E942A
S11373500539FFE0EF16F1E0FF06B1F7CEC196352F
S113736029F481E30E94053980E3BCCF933741F4CB
S113737087E80E94053985E90E9405398EE1B2CF7C
S11373809536A9F4E0E0F0E070925700E89507B66E
S113739000FCFDCF60925700E89507B600FCFDCFD6
S11373A0E058FF4FE11580E7F80771F79ACF9C3654
S11373B059F40E94ED38809599E0E1E0F0E0082E60
S11373C090935700E8958DCF923721F489E0E1E05E
S11373D0F0E010C0963419F489E0F1010BC09E343A
S11373E021F489E0E3E0F0E005C0913539F489E067
S11373F0E2E0F0E080935700849174CF923641F438
S113740089E50E94053980E00E94053980E86ACF49
S1137410923419F0973609F0D8C099830E94ED3858
S1137420A82EB12CBA2CAA240E94ED38A82A0E94B6
S1137430ED38082F8BEB800F9981823010F08FE3A9
S113744051CF973609F047C081E180935700E89502
S11374504501B12C8114910409F44FC1C0909201EB
S1137460D0909301E0909401F09095010634C1F41A
S1137470EB2DF0E0EC29FD2984910E940539BB2015
S113748069F0F2E0CF0ED11CE11CF11CC092920114
S1137490D0929301E0929401F0929501B12617C025
S11374A0D701C601B695A795979587950E94563F33
S11374B00E94053982E0C80ED11CE11CF11CC09267
S11374C09201D0929301E0929401F092950191E09F
S11374D0891A9108BFCFC0909201D0909301E09097
S11374E09401F0909501063429F0BB82AA82412CC4
S11374F0512C32C0F60170925700E89507B600FC93
S1137500FDCFF3CF063489F5552059F180909201CF
S113751090909301A0909401B09095010E94ED3851
S1137520242D30E0382BF401090110935700E8951D
S11375301124F2E08F0E911CA11CB11C80929201C7
S113754090929301A0929401B092950151268A8160
S11375509B8101979B838A83EA81FB81EF2B91F6C0
S113756029C00E94ED38482EF1CF0E94ED38682FD3
S11375708091920190919301A0919401B091950111
S1137580B695A795979587950E945E3F8091920145
S113759090919301A0919401B09195010296A11D3F
S11375A0B11D8093920190939301A0939401B093A1
S11375B09501CDCF063409F094CEF60160925700C0
S11375C0E89507B600FCFDCF8CCE933471F4E090BF
S11375D09201F09093010E94ED3890E0F7010C01C4
S11375E010935700E89511247CCE933601F5C09092
S11375F09201D0909301E0909401F09095010E9443
S1137600ED38F601E16090E00C0110935700E89525
S11376101124F2E0CF0ED11CE11CF11CC0929201A6
S1137620D0929301E0929401F09295015ACE9D3646
S113763059F4E0919201F091930160925700E8951A
S113764007B600FCFDCF4DCE923559F4E09192017E
S1137650F0919301E590F4908F2D0E9405398E2DC1
S113766041CE943429F50E94ED38682F809192011F
S113767090919301A0919401B0919501B695A7952D
S1137680979587950E945E3F809192019091930116
S1137690A0919401B09195010296A11DB11D809312
S11376A0920190939301A0939401B093950119CE04
S11376B0943601F5C0909201D0909301E09094012A
S11376C0F0909501D701C601B695A7959795879532
S11376D00E94563F0E94053982E0C80ED11CE11C6D
S11376E0F11CC0929201D0929301E0929401F09225
S11376F0950103C09B3109F0A2CE7092E9009091EC
S1137700E8008091E8008E778093E80095FD11C031
S11377108091E80080FD04C08EB38111F9CF15C0BB
S11377208091E8008E778093E80003C08EB38823AD
S113773061F08091E80080FFF9CF94E09093E90034
S11377408091E8008B778093E8000E94343FADCDB0
S11377508091E00081608093E00082E49CED90934E
S1137760A1018093A0012CE088E190E00FB6F89489
S1137770A895809360000FBE20936000FFCF1F92F6
S11377800F920FB60F9211248F9381E883B919B821
S11377908F910F900FBE0F901F90189542E061ECEF
S11377A082E00E94ED3C42E161E883E00E94ED3C0E
S11377B042E160E884E00C94ED3C809198018F777D
S11377C0813209F03FC081E883B919B880919901E9
S11377D0813229F0823259F18032A1F513C08091AF
S11377E09801813A79F58091E800877F8093E800D9
S11377F067E070E081E091E00E94563C8091E800EF
S11378008B7712C0809198018132E1F48091E80075
S1137810877F8093E80067E070E081E091E00E9458
S1137820AF3C8091E8008E778093E80008958091C2
S11378309801813239F48091E800877F8093E800D1
S11378400C94013D0895292F30E02230310539F0A0
S11378502330310549F02130310561F410C08EE345
S113786090E022E431E01EC0882371F0813089F079
S11378708230A1F080E090E020E030E013C082E1AB
S113788090E020E831E00EC084E090E02EE331E0A7
S113789009C088E190E024E231E004C082E190E094
S11378A020E131E0FA0131832083089520919E0183
S11378B030919F012617370748F06115710539F497
S11378C02091E8002E772093E80001C0B901FC0163
S11378D020E061157105A1F18EB38823E1F18530B3
S11378E0E1F18091E80083FD34C08091E80082FFDB
S11378F006C08091E80082FF26C080E00895809150
S1137900E80080FFE6CF2091F3008091F20090E040
S1137910922B6115710551F08830910538F421914D
S11379202093F100615071090196F3CF21E008978B
S113793009F020E08091E8008E778093E800C9CFB9
S11379402111CACFD6CF8EB3882329F0853089F68A
S113795004C081E0089582E0089583E008956115EC
S1137960710529F42091E8002B772093E800611534
S1137970710531F12EB3222361F1253061F120919B
S1137980E80023FD22C02091E80022FFF3CFFC0190
S1137990CF014091F3002091F20030E0342B232BEF
S11379A009F38091F1008193CF0161507109611550
S11379B0710571F7D7CF8EB3882359F0853059F00C
S11379C08091E80080FFF7CF02C081E0089580E055
S11379D0089582E0089583E008958F708093E9000C
S11379E0EBEEF0E0808181608083EDEEF0E01082C8
S11379F06093EC0040838091EE00881F8827881FE5
S1137A0008958091980187FD05C08091E80080FF6A
S1137A100DC010C08091E80082FD04C08EB38111B6
S1137A20F9CF08958091E8008B7707C08EB3811158
S1137A30ECCF08958091E8008E778093E800089554
S1137A400F931F93CF93DF930E946F3D0E94773D66
S1137A50C8EDD0E088818F778883888180688883A7
S1137A6088818F7D888319BC1EBA1092960100EE1E
S1137A7010E0F80180818B7F808388818160888316
S1137A8042E060E080E00E94ED3CE1EEF0E08081C5
S1137A908E7F8083E2EEF0E080818160808380814C
S1137AA088608083F80180818E7F808388818061F3
S1137AB08883DF91CF911F910F910895E8EDF0E055
S1137AC080818F7E8083E7EDF0E080818160808318
S1137AD084E082BF81E0809397010C94203DE8ED1F
S1137AE0F0E080818E7F80831092E20008951092EE
S1137AF0DA001092E10008951F920F920FB60F92D0
S1137B0011242F933F934F935F936F937F938F939E
S1137B109F93AF93BF93EF93FF938091DA0080FF1D
S1137B201DC08091D80080FF19C08091DA008E7F3B
S1137B308093DA008091D90080FF0CC080E189BD78
S1137B4082E189BD09B400FEFDCF81E08EBB0E94B5
S1137B50333F04C019BC1EBA0E94333F8091E10038
S1137B6080FF18C08091E20080FF14C08091E20081
S1137B708E7F8093E2008091E20080618093E20036
S1137B808091D80080628093D80019BC85E08EBBB8
S1137B900E94333F8091E10084FF2FC08091E20076
S1137BA084FF2BC080E189BD82E189BD09B400FE58
S1137BB0FDCF8091D8008F7D8093D8008091E10023
S1137BC08F7E8093E1008091E2008F7E8093E200BB
S1137BD08091E20081608093E20080919601882385
S1137BE011F084E007C08091E30087FF02C083E0C6
S1137BF001C081E08EBB0E94333F8091E10083FF8E
S1137C0023C08091E20083FF1FC08091E100877F41
S1137C108093E10082E08EBB109296018091E10096
S1137C208E7F8093E1008091E2008E7F8093E2005A
S1137C308091E20080618093E20042E060E080E0B5
S1137C400E94ED3C0E94333FFF91EF91BF91AF91B1
S1137C509F918F917F916F915F914F913F912F9160
S1137C600F900FBE0F901F9018951F93CF93DF9323
S1137C7000D0CDB7DEB7E8E9F1E08091F10081935F
S1137C8081E0E03AF807C9F70E94DD3B8091E80003
S1137C9083FFD5C02091980130919901832F90E002
S1137CA08A30910508F0CBC0FC01EA5AF74C0C94D9
S1137CB0503F203881F0223809F0C1C080919C01E6
S1137CC08F708093E9009091EB0095FB992790F9D0
S1137CD01092E90001C090E08091E800877F8093D2
S1137CE0E8009093F1001092F10084C0822F8D7F00
S1137CF009F0A5C0223009F0A2C080919A01811137
S1137D0024C020919C012F7009F499C02093E900AC
S1137D108091EB0080FF19C08091EB00333011F4A7
S1137D20806211C080618093EB0081E090E0022EBC
S1137D3001C0880F0A94EAF78093EA001092EA00DF
S1137D408091EB0088608093EB001092E9008091B1
S1137D50E800877F52C0211172C010919A011F77E9
S1137D608091E3008078812B8093E3008091E80088
S1137D70877F8093E8000E94013D8091E80080FFA6
S1137D80FCCF8091E30080688093E300112311F01D
S1137D9083E001C082E08EBB52C02058223008F03C
S1137DA04EC0AE014F5F5F4F60919C0180919A017C
S1137DB090919B010E94233C009709F440C02091BC
S1137DC0E800277F2093E800BC0189819A810E9402
S1137DD0563C8091E8008B778093E80030C02038CF
S1137DE071F58091E800877F8093E8008091960187
S1137DF08093F1008091E8008E778093E8000E94E0
S1137E00013D1DC021111BC090919A019230B8F41C
S1137E108091E800877F8093E800909396010E9408
S1137E20013D80919601811104C08091E30087FF98
S1137E3002C084E001C081E08EBB0E94CE3B8091F1
S1137E40E80083FF0AC08091E800877F8093E80000
S1137E508091EB0080628093EB000F900F90DF9194
S1137E60CF911F9108950895CF938EB38823B1F0D5
S1137E708091E9008F709091EC0090FF02C090E82F
S1137E8001C090E0C92FC82B1092E9008091E8004E
S1137E9083FD0E94353ECF70C093E900CF910895D1
S1137EA0EE0FFF1F0590F491E02D0994F999FECF90
S1137EB092BD81BDF89A992780B50895262FF99926
S1137EC0FECF1FBA92BD81BD20BD0FB6F894FA9AB9
S10F7ED0F99A0FBE01960895F894FFCFB4
S1137EDC01000000000000084C5546414344430097
S1137EEC12034C005500460041002000430044009E
S1137EFC4300000018034400650061006E0020007C
S1137F0C430061006D006500720061000000040311
S1137F1C090409023E000201008032090400000138
S1137F2C02020100052400100104240202052406A7
S1137F3C0001070582030800FF09040100020A007E
S1137F4C0000070504021000050705830210000554
S1137F5C1201100102000008EB034A200001010287
S1057F6C00010E
S1137FA00C949B380C94AD380C94BF380C94CC389A
S1137FB00C94D2380C94D8380C94DF380895089572
S1097FC0089508950895E0
S1137FE0DFCFE0CFE1CFE2CFE3CFE4CFE5CFE6CF01
S10B7FF0E6CFE6CFE6CFE6CFB1
S10B7FF80070000000DFFBDC57
S90370008C
