S02B0000424F4F544C4F414445525F4C5546415F4344435F33324B425F344B425F333255345F41504F4C4C4F55
S11370000C9460380C9499380C9499380C949938F1
S11370100C9499380C9499380C9499380C949938A8
S11370200C9499380C9499380C946B3D0C949938C1
S11370300C9499380C9499380C9499380C94993888
S11370400C9499380C94933B0C9499380C9499387B
S11370500C9499380C9499380C9499380C94993868
S11370600C9499380C9499380C9499380C94993858
S11370700C9499380C9499380C9499380C94993848
S11370800C9499380C9499380C9499380C94993838
S11370900C9499380C9499380C9499380C94993828
S11370A00C9499380C9499380C949938483E653E60
S11370B00E3F653E0E3F9A3EBC3E0E3FDE3EF13E25
S11370C011241FBECFEFDAE0DEBFCDBF04B603FE4E
S11370D019C08091A2019091A30182349C4D91F436
S11370E084B7877F84BF88E10FB6F89480936000EB
S11370F0109260000FBE1092A3011092A201E0E072
S1137100F0E0099511E0A0E0B1E0EAEBFEE702C08F
S113711005900D92A239B107D9F721E0A2E9B1E0B7
S113712001C01D92A23AB207E1F70E94CA380C943A
S11371305B3F0C94003884E08093E9008091E80080
S113714085FD0EC08091E8008B778093E8008091E4
S1137150E80082FDF3CF8EB38111F9CF80E008956A
S11371608091F100089593E09093E9009091E800F4
S113717095FF03C08093F10008959091E8009E77F5
S11371809093E8009091E80090FDF4CF9EB39111A4
S1137190F9CF0895CF93DF9300D01F92CDB7DEB718
S11371A084B7877F84BF88E10FB6F894809360002A
S11371B0109260000FBE90E080E80FB6F8948093C0
S11371C06100909361000FBE81E085BF12E015BF9E
S11371D080E880936100109261000E944D3D84B16B
S11371E0816884B985B1816885B9559A5D98109292
S11371F089008AEF8093880010936F0083E0809366
S1137200810085B181688E7F85B95D987894F3E0BB
S11372103F2E84E0682E7724739495E0292E809184
S11372200001882309F468C26092E9008091E800B3
S113723082FF55C20E949B38982F853481F48CE4D8
S11372409DE1909393018093920107B600FCFDCFDA
S1137250F999FECF81E180935700E89508C088E84A
S1137260890F823010F0943531F40E949B388DE000
S11372700E94B3380DC29035D1F39C34C1F39437D6
S113728029F484E40E94B33880E0F2CF913611F4FB
S113729089E5EECF9134A1F40E949B38182F0E9407
S11372A09B3890E0880F991F212F30E0322F22273E
S11372B0330F822B932BAA2797FDA095BA2FBAC11F
S11372C0903711F483E5D4CF933561F408E011E0ED
S11372D0F80181918F010E94B338F1E00F301F074C
S11372E0B9F7D6C1963529F481E30E94B33880E317
S11372F0BFCF933741F487E80E94B33885E90E94F1
S1137300B3388EE1B5CF9536A9F4E0E0F0E03092E1
S11373105700E89507B600FCFDCF20925700E8958A
S113732007B600FCFDCFE058FF4FE11520E7F20758
S113733071F79DCF9C3659F40E949B38809599E053
S1137340E1E0F0E0082E90935700E89590CF923753
S113735021F489E0E1E0F0E011C0963421F489E001
S1137360E0E0F0E00BC09E3421F489E0E3E0F0E0DB
S113737005C0913539F489E0E2E0F0E080935700EC
S1137380849176CF923641F489E50E94B33880E047
S11373900E94B33880E86CCF923419F0973609F024
S11373A0DFC099830E949B38A82EB12CBA2CAA2442
S11373B00E949B38A82A0E949B38182F8BEB810FC0
S11373C09981823010F08FE353CF10926F0097367B
S11373D009F047C081E180935700E8954501B12C3D
S11373E08114910409F4B8C0C0909401D09095011F
S11373F0E0909601F09097011634C1F4EB2DF0E083
S1137400EC29FD2984910E94B338BB2069F0F2E095
S1137410CF0ED11CE11CF11CC0929401D0929501B5
S1137420E0929601F0929701B72417C0D701C601E4
S1137430B695A795979587950E94453F0E94B338C6
S113744022E0C20ED11CE11CF11CC0929401D09226
S11374509501E0929601F092970181E0881A9108D3
S1137460BFCFC0909401D0909501E0909601F09028
S11374709701163429F0BB82AA82412C512C32C0C8
S1137480F60130925700E89507B600FCFDCFF3CF24
S1137490163489F5552059F1809094019090950106
S11374A0A0909601B09097010E949B38242D30E063
S11374B0382BF401090170925700E8951124F2E089
S11374C08F0E911CA11CB11C809294019092950185
S11374D0A0929601B092970157248A819B810197CB
S11374E09B838A83EA81FB81EF2B91F629C00E945A
S11374F09B38482EF1CF0E949B38682F80919401CD
S113750090919501A0919601B0919701B695A79598
S1137510979587950E944D3F809194019091950194
S1137520A0919601B09197010296A11DB11D80937F
S1137530940190939501A0939601B0939701CDCFB8
S1137540163439F4F60120925700E89507B600FC8A
S1137550FDCF8DE00E94B33882E080936F0098C025
S1137560933471F400919401109195010E949B3819
S113757090E0F8010C0170925700E895112477CE41
S1137580933601F5C0909401D0909501E090960156
S1137590F09097010E949B38F601E16090E00C01A5
S11375A070925700E8951124F2E0CF0ED11CE11C33
S11375B0F11CC0929401D0929501E0929601F09250
S11375C0970155CE9D3659F4E0919401F0919501BF
S11375D020925700E89507B600FCFDCF48CE9235BF
S11375E059F4E0919401F091950105911491812F42
S11375F00E94B338802F3CCE943429F50E949B38E6
S1137600682F8091940190919501A0919601B09179
S11376109701B695A795979587950E944D3F8091C0
S1137620940190919501A0919601B09197010296D1
S1137630A11DB11D8093940190939501A09396018F
S1137640B093970114CE943601F5C0909401D09074
S11376509501E0909601F0909701D701C601B69587
S1137660A795979587950E94453F0E94B33822E0DD
S1137670C20ED11CE11CF11CC0929401D092950160
S1137680E0929601F092970103C09B3109F09BCEE2
S11376903092E9009091E8008091E8008E77809321
S11376A0E80095FD11C08091E80080FD04C08EB310
S11376B08111F9CF14C08091E8008E778093E8009F
S11376C003C08EB3882359F08091E80080FFF9CF7E
S11376D06092E9008091E8008B778093E8000E9433
S11376E0233F809192019091930181349F4108F44A
S11376F096CD109200018DCD8091E0008160809341
S1137700E00082E49CED9093A3018093A2012CE01D
S113771088E190E00FB6F894A895809360000FBEBE
S113772020936000FFCF1F920F920FB60F92112487
S11377302F938F939F93EF93FF9310928500109252
S1137740840081E883B919B8E0E0F0E08591949170
S1137750019649F080919201909193010196909342
S1137760930180939201FF91EF919F918F912F91BB
S11377700F900FBE0F901F90189542E061EC82E0CD
S11377800E94DC3C42E161E883E00E94DC3C42E18F
S113779060E884E00C94DC3C80919A018F7781321C
S11377A009F03FC081E883B919B880919B01813207
S11377B029F0823259F18032A1F513C080919A01E7
S11377C0813A79F58091E800877F8093E80067E04B
S11377D070E081E091E00E94453C8091E8008B7765
S11377E012C080919A018132E1F48091E800877F90
S11377F08093E80067E070E081E091E00E949E3CA5
S11378008091E8008E778093E800089580919A0132
S1137810813239F48091E800877F8093E8000C94EA
S1137820F03C0895292F30E02230310539F023301F
S1137830310549F02130310561F410C08EE390E048
S113784022E431E01EC0882371F0813089F0823057
S1137850A1F080E090E020E030E013C082E190E00D
S113786020E831E00EC084E090E02EE331E009C06E
S113787088E190E024E231E004C082E190E020E17C
S113788031E0FA013183208308952091A0013091E1
S1137890A1012617370748F06115710539F42091C5
S11378A0E8002E772093E80001C0B901FC0120E034
S11378B061157105A1F18EB38823E1F18530E1F101
S11378C08091E80083FD34C08091E80082FF06C007
S11378D08091E80082FF26C080E008958091E8004E
S11378E080FFE6CF2091F3008091F20090E0922B8C
S11378F06115710551F08830910538F42191209378
S1137900F100615071090196F3CF21E0089709F065
S113791020E08091E8008E778093E800C9CF2111A0
S1137920CACFD6CF8EB3882329F0853089F604C018
S113793081E0089582E0089583E00895611571055A
S113794029F42091E8002B772093E8006115710554
S113795031F12EB3222361F1253061F12091E80049
S113796023FD22C02091E80022FFF3CFFC01CF01C8
S11379704091F3002091F20030E0342B232B09F3E3
S11379808091F1008193CF016150710961157105F6
S113799071F7D7CF8EB3882359F0853059F0809191
S11379A0E80080FFF7CF02C081E0089580E00895E9
S11379B082E0089583E008958F708093E900EBEEF0
S11379C0F0E0808181608083EDEEF0E010826093CE
S11379D0EC0040838091EE00881F8827881F08955B
S11379E080919A0187FD05C08091E80080FF0DC059
S11379F010C08091E80082FD04C08EB38111F9CFDC
S1137A0008958091E8008B7707C08EB38111ECCF85
S1137A1008958091E8008E778093E80008950F938D
S1137A201F93CF93DF930E945E3D0E94663DC8ED95
S1137A30D0E088818F778883888180688883888173
S1137A408F7D888319BC1EBA1092980100EE10E055
S1137A50F80180818B7F808388818160888342E004
S1137A6060E080E00E94DC3CE1EEF0E080818E7F0B
S1137A708083E2EEF0E08081816080838081886091
S1137A808083F80180818E7F8083888180618883F0
S1137A90DF91CF911F910F910895E8EDF0E080817F
S1137AA08F7E8083E7EDF0E080818160808384E0D5
S1137AB082BF81E0809399010C940F3DE8EDF0E0E2
S1137AC080818E7F80831092E20008951092DA0004
S1137AD01092E10008951F920F920FB60F92112495
S1137AE02F933F934F935F936F937F938F939F93C2
S1137AF0AF93BF93EF93FF938091DA0080FF1DC093
S1137B008091D80080FF19C08091DA008E7F809325
S1137B10DA008091D90080FF0CC080E189BD82E148
S1137B2089BD09B400FEFDCF81E08EBB0E94223FD7
S1137B3004C019BC1EBA0E94223F8091E10080FF5C
S1137B4018C08091E20080FF14C08091E2008E7F13
S1137B508093E2008091E20080618093E200809152
S1137B60D80080628093D80019BC85E08EBB0E9447
S1137B70223F8091E10084FF2FC08091E20084FFC6
S1137B802BC080E189BD82E189BD09B400FEFDCF2F
S1137B908091D8008F7D8093D8008091E1008F7E02
S1137BA08093E1008091E2008F7E8093E2008091D7
S1137BB0E20081608093E20080919801882311F0B3
S1137BC084E007C08091E30087FF02C083E001C026
S1137BD081E08EBB0E94223F8091E10083FF23C09D
S1137BE08091E20083FF1FC08091E100877F809332
S1137BF0E10082E08EBB109298018091E1008E7FBB
S1137C008093E1008091E2008E7F8093E200809176
S1137C10E20080618093E20042E060E080E00E9444
S1137C20DC3C0E94223FFF91EF91BF91AF919F9165
S1137C308F917F916F915F914F913F912F910F9011
S1137C400FBE0F901F9018951F93CF93DF9300D012
S1137C50CDB7DEB7EAE9F1E08091F100819381E0EC
S1137C60E23AF807C9F70E94CC3B8091E80083FF11
S1137C70D5C020919A0130919B01832F90E08A30E6
S1137C80910508F0CBC0FC01EA5AF74C0C943F3F35
S1137C90203881F0223809F0C1C080919E018F7094
S1137CA08093E9009091EB0095FB992790F910924D
S1137CB0E90001C090E08091E800877F8093E800AC
S1137CC09093F1001092F10084C0822F8D7F09F00F
S1137CD0A5C0223009F0A2C080919C01811124C06A
S1137CE020919E012F7009F499C02093E90080919E
S1137CF0EB0080FF19C08091EB00333011F48062F7
S1137D0011C080618093EB0081E090E0022E01C0FD
S1137D10880F0A94EAF78093EA001092EA008091AF
S1137D20EB0088608093EB001092E9008091E800FA
S1137D30877F52C0211172C010919C011F778091DE
S1137D40E3008078812B8093E3008091E800877FB3
S1137D508093E8000E94F03C8091E80080FFFCCF13
S1137D608091E30080688093E300112311F083E0A5
S1137D7001C082E08EBB52C02058223008F04EC0B1
S1137D80AE014F5F5F4F60919E0180919C01909185
S1137D909D010E94123C009709F440C02091E80024
S1137DA0277F2093E800BC0189819A810E94453C89
S1137DB08091E8008B778093E80030C0203871F51B
S1137DC08091E800877F8093E800809198018093F8
S1137DD0F1008091E8008E778093E8000E94F03CE7
S1137DE01DC021111BC090919C019230B8F4809168
S1137DF0E800877F8093E800909398010E94F03C0C
S1137E0080919801811104C08091E30087FF02C032
S1137E1084E001C081E08EBB0E94BD3B8091E800FC
S1137E2083FF0AC08091E800877F8093E8008091F7
S1137E30EB0080628093EB000F900F90DF91CF9165
S1137E401F9108950895CF938EB38823B1F0809144
S1137E50E9008F709091EC0090FF02C090E801C09F
S1137E6090E0C92FC82B1092E9008091E80083FDAF
S1137E700E94243ECF70C093E900CF910895EE0F85
S1137E80FF1F0590F491E02D0994F999FECF92BD5E
S1137E9081BDF89A992780B50895262FF999FECFC8
S1137EA01FBA92BD81BD20BD0FB6F894FA9AF99A13
S10D7EB00FBE01960895F894FFCF69
S1137EBA01000000000000084C55464143444300B9
S1137ECA12034C00550046004100200043004400C0
S1137EDA4300000018034400650061006E0020009E
S1137EEA430061006D006500720061000000040334
S1137EFA090409023E00020100803209040000015B
S1137F0A02020100052400100104240202052406C9
S1137F1A0001070582030800FF09040100020A00A0
S1137F2A0000070504021000050705830210000576
S1137F3A1201100102000008EB034A2000010102A9
S1057F4A000130
S90370008C
